:020000040800F2
:1000000070620020AD020008E53E00089734000849
:10001000E13E0008AF0A0008454B00080000000060
:1000200000000000000000000000000015020008B1
:10003000C102000800000000590200083D4100080C
:10004000C7020008C7020008C7020008C70200086C
:10005000C7020008C7020008C7020008C70200085C
:10006000C7020008C7020008C7020008A50C000864
:10007000C7020008C7020008C7020008C70200083C
:10008000C7020008C7020008C7020008C70200082C
:10009000C7020008C7020008C7020008C70200081C
:1000A000C702000835420008C7020008C70200085E
:1000B000C7020008C7020008C7020008C7020008FC
:1000C000C7020008C7020008C7020008C7020008EC
:1000D000C70200080D470008C7020008C702000851
:1000E000C7020008C7020008C7020008C7020008CC
:1000F000C7020008C7020008C7020008C7020008BC
:10010000C7020008C7020008C7020008C7020008AB
:10011000C7020008C702000845420008C7020008DD
:10012000C7020008C7020008C7020008C70200088B
:1001300000F002F800F05FF80AA090E8000C82449A
:100140008344AAF10107DA4501D100F054F8AFF277
:10015000090EBAE80F0013F0010F18BFFB1A43F0A5
:1001600001031847B48D0000D48D00000A444FF0FD
:10017000000C10F8013B13F0070408BF10F8014B06
:100180001D1108BF10F8015B641E05D010F8016B4B
:10019000641E01F8016BF9D113F0080F1EBF10F8AF
:1001A000014BAD1C0C1B09D16D1E58BF01F801CBD2
:1001B000FAD505E014F8016B01F8016B6D1EF9D555
:1001C0009142D6D37047000000230024002500266A
:1001D000103A28BF78C1FBD8520728BF30C148BFAA
:1001E0000B607047642900F0D580002070471FB570
:1001F0001FBD10B510BD00F08DFA1146FFF7F7FFD7
:1002000004F00DFE00F0ABFA03B4FFF7F2FF03BCFD
:1002100004F0B6FC224B19680868B0E8F00F80F3D0
:100220000988BFF36F8F4FF0000080F311884EF004
:100230000D0E70470000000006480068006880F35B
:10024000088862B661B6BFF34F8FBFF36F8F00DFD0
:1002500000BF00BF08ED00E0EFF30980BFF36F8F30
:100260000F4B1A6820E9F00F106008B54FF05000EE
:1002700080F31188BFF34F8FBFF36F8F06F0C0FF7D
:100280004FF0000080F31188BDE808401968086845
:10029000B0E8F00F80F30988BFF36F8F704700BF9D
:1002A00008010020EFF305807047000009488047EF
:1002B00009480047FEE7FEE7FEE7FEE7FEE7FEE748
:1002C000FEE7FEE7FEE7FEE704480549054A064B60
:1002D00070470000DD410008310100087056002021
:1002E00070620020705A0020705A00207047B2F1EE
:1002F00020030AD5C2F1200320FA02F001FA03F329
:1003000021FA02F140EA0300704721FA03F04FF0AE
:10031000000170470FB4044910B503AA029800F019
:100320008BF910BC5DF814FB040000202DE9F041AE
:100330000E460446002020622046E168884730B31C
:10034000252805D0D4E901219047206A401CF2E716
:10035000E168204600278847050018D0A5F1410034
:10036000192802D820354FF4006732462946204626
:100370002760FFF737FF40B1012804D0F61D26F0B3
:1003800007060836D8E7361DD6E72846DAE7206A9A
:10039000BDE8F0812DE9F04106460024106875297A
:1003A000314616A510D0AFF30080002802DA404293
:1003B00013A507E031688A0701D512A502E04907B5
:1003C00004D511A5012401E0AFF3008000210A2229
:1003D00006F1240709E0B0FBF2FCB0FBF2F302FBEC
:1003E0001C00303078541846491C0028F3D12346AD
:1003F0002A463046BDE8F04100F0ACB800000000ED
:100400002D0000002B0000002000000040EA010346
:1004100010B59B070FD1042A0DD310C808C9121FAD
:100420009C42F8D020BA19BA884201D9012010BDE7
:100430004FF0FF3010BD1AB1D30703D0521C07E0B4
:10044000002010BD10F8013B11F8014B1B1B07D118
:1004500010F8013B11F8014B1B1B01D1921EF1D189
:10046000184610BD032A40F2308010F0030C00F053
:10047000158011F8013BBCF1020F624498BF11F8DE
:1004800001CB00F8013B38BF11F8013BA2F1040297
:1004900098BF00F801CB38BF00F8013B11F003030F
:1004A00000F0DC80083AC0F0088051F8043B083ABC
:1004B00051F804CBA0E80810F5E7121D5CBF51F815
:1004C000043B40F8043BAFF30080D20724BF11F88F
:1004D000013B11F801CB48BF11F8012B24BF00F8F4
:1004E000013B00F801CB48BF00F8012B704702F038
:1004F000FF0343EA032242EA024200F0E3B84FF06E
:10050000000200B5134694469646203922BFA0E863
:100510000C50A0E80C50B1F12001BFF4F7AF09076F
:1005200028BFA0E80C5048BF0CC05DF804EB890060
:1005300028BF40F8042B08BF704748BF20F8022BA3
:1005400011F0804F18BF00F8012B704770477047BB
:10055000704770472DE9F0470D469946924604468C
:1005600000F124080168880604D5E06921F0100133
:10057000216000E00120A84201DD471B00E00027C8
:10058000A1697A1902EB0900081AA0612078C00657
:1005900002D42046AFF30080002608E0D4E9012110
:1005A0001AF806009047206A401C761C20624E45CF
:1005B000F4DB2078C0060AD52046AFF3008006E0C1
:1005C000D4E9012130209047206A401C2062381E67
:1005D000A7F10107F4DC07E0D4E9012118F80500D0
:1005E0009047206A401C2062281EA5F10105F3DC1B
:1005F0002046AFF300802078000602D50220BDE837
:10060000F0870120FBE7000001694A1C02610878BD
:10061000704700B58FB0CDE9013100210591054942
:100620007944CDE9031011466846FFF77FFE0FB00D
:1006300000BD0000E5FFFFFF074B70B50D467B4492
:10064000FFF7E7FF0446284600F05CF810B14FF0D2
:10065000FF3070BD204670BD6747000010B5203ADE
:10066000C0F00B80B1E81850203AA0E81850B1E86B
:100670001850A0E81850BFF4F5AF5FEA027C24BF21
:10068000B1E81850A0E8185044BF18C918C0BDE818
:1006900010405FEA827C24BF51F8043B40F8043BE1
:1006A00008BF7047D20728BF31F8023B48BF11F896
:1006B000012B28BF20F8023B48BF00F8012B7047F0
:1006C0004FF000020429C0F0128010F0030C3FF438
:1006D00018AFCCF1040CBCF1020F18BF00F8012BCD
:1006E000A8BF20F8022BA1EB0C01FFF70ABF5FEABD
:1006F000C17C24BF00F8012B00F8012B48BF00F893
:10070000012B7047007B00F0800070470048704765
:100710000C5600207546FFF7F9FFAE460500694606
:10072000534620F00700854618B020B5FFF7CCFDF2
:10073000BDE820404FF000064FF000074FF00008E2
:100740004FF0000B21F00701AC46ACE8C009ACE863
:10075000C009ACE8C009ACE8C0098D46704710B5C7
:100760000446AFF300802046BDE81040FFF74CBDC3
:1007700070B5044600252068806800F00100F0B1E3
:100780002068806820F001002168886001F076FC14
:1007900005460EE001F072FC401B022809D9A06A50
:1007A00040F01000A062E06A40F00100E062012029
:1007B00070BD2068806800F001000028EAD10020A8
:1007C000F6E770B505466C6AA06A00F05000E0B923
:1007D000A06A40F40070A0622068806800F4602085
:1007E000B0F5602F0DD1207B58B9A06A20F480703D
:1007F000A062A06A00F4805018B9A06A40F001001D
:10080000A062204600F07AFC03E0206A016B2846D3
:10081000884770BD70B505466C6AA06A40F040001C
:10082000A062E06A40F00400E062204600F087FC2D
:1008300070BD70B50446656A284600F07FFC70BD47
:1008400038B504460025002000902068806800F03C
:10085000010080BB2068806840F00100216888604A
:10086000164800681649B0FBF1F0009002E00098CD
:10087000401E009000980028F9D101F0FFFB0546CA
:1008800013E001F0FBFB401B02280ED9A06A40F0E8
:100890001000A062E06A40F00100E06200BF0020AA
:1008A00084F8240000BF012038BD2068806800F073
:1008B00001000028E5D00020F6E700001400002029
:1008C00040420F0010B502F0E9FD022006F0D2F917
:1008D000002000F018F8E52813D12B21312000F07A
:1008E0008DF80E212C2000F089F828212D2000F011
:1008F00085F800212E2000F081F804F043F9002053
:1009000010BDFF20FCE770B50446FF2502F0AEFEE7
:100910003A2002F073FE02F0EBFE08B1284670BDEB
:10092000204602F06BFE02F0E3FE08B12846F6E72F
:1009300002F09CFE3B2002F061FE02F0D9FE08B1FD
:100940002846ECE7002002F0EFFD054602F0B0FE7D
:100950002846E4E72DE9FC4105460E46174602F01D
:1009600085FE3A2002F04AFE02F0C2FE18B14FF0B6
:10097000FF30BDE8FC81322002F040FE02F0B8FEFC
:1009800010B14FF0FF30F4E702F070FE3B2002F0B0
:1009900035FE02F0ADFE10B14FF0FF30E9E7002464
:1009A0000EE0052C05D1002002F0BEFD0DF804007C
:1009B00004E0012002F0B8FD0DF80400601CC4B290
:1009C000062CEEDB02F074FE9DF800009DF801108D
:1009D00000EB012000B228809DF802009DF8031072
:1009E00000EB012000B230809DF804009DF8051056
:1009F00000EB012000B238800020BAE770B5054650
:100A00000C4602F033FE3A2002F0F8FD02F070FED0
:100A100010B14FF0FF3070BD284602F0EFFD02F03C
:100A200067FE10B14FF0FF30F5E7204602F0E6FD1B
:100A300002F05EFE10B14FF0FF30ECE702F038FE3E
:100A40000020E8E72DE9F05F05460E4617461C46F4
:100A50004FF00008C146C246002028803080388010
:100A6000834614E03A4631462846FFF773FFB5F94E
:100A700000008044B6F900008144B7F900008244C8
:100A8000012006F0F7F80BF1010000F0FF0BA34581
:100A9000E8DB98FBF4F000B2288099FBF4F000B298
:100AA00030809AFBF4F000B23880BDE8F09F00BFC0
:100AB000FEE7000070B505460C46012D06D1012C5D
:100AC00004D1012201020E4801F0D1FA012D05D115
:100AD00024B9002229020A4801F0C9FA022D06D1E0
:100AE000012C04D101221021054801F0C0FA022D89
:100AF00005D124B900221021014801F0B8FA70BDD7
:100B0000000C014070B504460E461546012C0DD16F
:100B1000012E0BD1012D09D100220102554801F00F
:100B2000A6FA01225102534801F0A1FA012C0CD17E
:100B30005EB9012D09D1002261024E4801F097FAF9
:100B4000012211024B4801F092FA012C0AD14DB951
:100B500000226102474801F08AFA0022210245483A
:100B600001F085FA022C0DD1012E0BD1012D09D1F6
:100B7000002240213F4801F07AFA012280213D48BD
:100B800001F075FA022C0CD15EB9012D09D10022B9
:100B90008021384801F06BFA01224021354801F0EC
:100BA00066FA022C0AD14DB900228021314801F0A9
:100BB0005EFA002240212F4801F059FA032C0DD192
:100BC000012E0BD1012D09D10122D1032A4801F0B8
:100BD0004EFA0022A903284801F049FA032C0CD14F
:100BE0005EB9012D09D101229103234801F03FFA9A
:100BF0000022E903204801F03AFA032C0CD15DB938
:100C000000224FF400411C4801F031FA00224FF459
:100C10008041194801F02BFA042C0DD1012E0BD183
:100C2000012D09D101225103134801F020FA0022BD
:100C3000A102114801F01BFA042C0CD15EB9012D60
:100C400009D1012211030C4801F011FA0022E1023E
:100C5000094801F00CFA042C0AD14DB90022E10236
:100C6000054801F004FA0022A102034801F0FFF94F
:100C700070BD000000100140000C014010B504469A
:100C8000012C05D100224103054801F0F0F905E0EF
:100C900024B901225103024801F0E9F910BD000016
:100CA0000010014010B5024800F058FD10BD0000D2
:100CB0008001002030B590F840500124AC40C56B55
:100CC0006C60046863604468102C04D10468A260FE
:100CD0000468E16003E00468A1600468E26030BD7C
:100CE00072B600BFFEE700000021074AD161074944
:100CF000096941F00201054A11611146486109691B
:100D000041F0400111617047E804002000200240DA
:100D10000022054BDA61054A126942F00102034BD9
:100D20001A61018070470000E804002000200240A2
:100D300000201E49C96801F0100139B11C49C96978
:100D400041F002011A4AD16140F010001749C96808
:100D500001F0040139B11649C96941F00101144A91
:100D6000D16140F004001149C96901F0010169B184
:100D70000F49C96941F004010D4AD16100BF0B4917
:100D8000C96921F00101094AD16100BF00BF40F2E9
:100D90000111884206D10549C96921F00101034AC0
:100DA000D16101E00149C86000BF704700200240E6
:100DB000E804002070B5044601F060F9054609E03A
:100DC000601C38B124B101F059F9401BA04201D98F
:100DD000032070BD1248C06800F001000028EFD168
:100DE0000F48C06800F0200020B100BF20200C494F
:100DF000C86000BF0A48C06800F0100048B9084841
:100E0000C06900F0010020B90548C06800F0040086
:100E100018B1FFF78DFF0120DBE70020D9E70000C4
:100E2000002002407CB5044600251648006803F007
:100E300069FF032800D101251DB11248006806F0A2
:100E4000BDF84FF4FA7269460F48006806F01AFDC3
:100E5000012811D1BDF800000C490880BDF802003E
:100E60000B490880BDF804000A49088024B10098A5
:100E70002060BDF80400A0801DB10248006806F0A3
:100E80004BF97CBD440000205C0000206400002081
:100E90006600002068000020F8B504460026002007
:100EA000009000BF94F82400012801D10220F8BD71
:100EB000012084F8240000BF2046FFF759FC0646B5
:100EC000002E62D1A06A20F4885040F00200A06297
:100ED000022001F0C9F930490968B1FBF0F0400087
:100EE000009002E00098401E009000980028F9D180
:100EF0002046FFF7A5FC2068806840F008002168C4
:100F0000886001F0BBF8054611E001F0B7F8401B1E
:100F10000A280CD9A06A20F0020040F01000A0625C
:100F200000BF002084F8240000BF0120BFE7206834
:100F3000806800F008000028E7D12068806840F051
:100F400004002168886001F099F8054611E001F07D
:100F500095F8401B0A280CD9A06A20F0020040F046
:100F60001000A06200BF002084F8240000BF012010
:100F70009DE72068806800F004000028E7D1A06A9F
:100F800020F0020040F00100A06200BF002084F8C1
:100F9000240000BF30468AE71400002038B502461E
:100FA00000230020009000BF92F82400012801D106
:100FB000022038BD012082F8240000BF48680728BD
:100FC00012D21068406B0C79641E04EB84051F2458
:100FD000AC40A0430D796D1E05EB85050C68AC4057
:100FE00020431468606327E048680D2812D2106817
:100FF000006B0C79E41F04EB84051F24AC40A04374
:101000000D79ED1F05EB85050C68AC402043146895
:10101000206311E01068C06A0C790D3C04EB840574
:101020001F24AC40A0430D790D3D05EB85050C68F0
:10103000AC4020431468E06208680A2812D31068A4
:10104000C0680C780A3C04EB44050724AC40A0437C
:101050000D780A3D05EB45058C68AC4020431468CB
:10106000E0600FE0106800690C7804EB4405072489
:10107000AC40A0430D7805EB45058C68AC4020439F
:10108000146820610868102802D00868112827D148
:10109000174C1068A0421ED11068806800F4000050
:1010A000F0B91068806840F400001468A060086817
:1010B000102815D10F4800680F4CB0FBF4F000EB7E
:1010C00080004000009002E00098401E00900098D0
:1010D0000028F9D104E0906A40F0200090620123DA
:1010E00000BF002082F8240000BF184661E700001E
:1010F000002401401400002040420F0038B504468F
:10110000002000900A4800F0F9F96A4600210948D9
:10111000006805F0DDFD00BF009838B14FF0805049
:1011200005490860BFF34F8FBFF36F8F00BF38BD15
:10113000500100204000002004ED00E0704770479F
:101140002DE9F0410446002700250026A84614B9E1
:101150000120BDE8F081A06810B1207D00B100BF82
:10116000A06A30B90020E06284F82400204600F034
:1011700097F82046FFF7FCFA0746A06A00F0100037
:10118000002873D1002F7ED1A06A20F4885040F04F
:101190000200A0623F4AD4E90001904208D1E06910
:1011A000B0F5402F02D14FF4002002E0E06900E0EA
:1011B000E0690143207B41EA40000643A068B0F5A6
:1011C000807F02D0A068012802D14FF4807000E037
:1011D00000200543207D012811D1207B38B9A0696A
:1011E000401E4FF4006141EA4030054307E0A06A29
:1011F00040F02000A062E06A40F00100E062206858
:10120000406820F46940284321684860206880686D
:1012100021490840304321688860A068B0F5807F8C
:1012200002D0A068012802D14FF4807000E00020B5
:10123000B0F5807F03D1208A401E4FEA0058206815
:10124000C06A20F4700040EA08002168C862206883
:10125000806812490840B04209D10020E062A06ACB
:1012600020F0020040F00100A06211E00BE0A06A53
:1012700020F0020040F01000A062E06A40F001009F
:10128000E062012704E0A06A40F01000A06201279C
:1012900038465EE7003C0140FDF7E1FFFE0E1FFF10
:1012A00010B586B00446002002900390049005908B
:1012B0002C492068884252D100BF2B48806940F4F5
:1012C0000070294988610846806900F40070019027
:1012D00000BF00BF00BF0846806940F01000886171
:1012E0000846806900F01000019000BF00BF00BFF9
:1012F0000846806940F0080088610846806900F06F
:101300000800019000BF00BF30200290032003902E
:1013100002A9164800F0FCFC03200290039002A9E9
:10132000134800F0F5FC134813490860002048609A
:101330000021114881608021C1604900016189005C
:101340004161202181610902C16100F0D3FB08B134
:10135000FFF7C6FC00BF08482062446200BF06B029
:1013600010BD0000002401400010024000100140A8
:10137000000C014008000240800100202DE9F041EE
:1013800004460D461646002757492068884203D078
:1013900056492068884205D15348001D006800F472
:1013A000702000E0002000287ED100BF94F82400C7
:1013B000012802D10220BDE8F081012084F8240038
:1013C00000BF2046FFF73CFA0746002F6DD1A06A08
:1013D00040F60161884340F48070A0624349206870
:1013E000884209D14048001D006800F4702008B907
:1013F000012002E0002000E0012078B1A06A20F482
:101400008010A0622068406800F4806000B3A06A89
:1014100020F4005040F48050A06219E0A06A40F42B
:101420008010A06230492068884203D02F4920688C
:10143000884205D12C48001D006800F4806000E05F
:10144000002028B1A06A20F4005040F48050A0622F
:10145000A06A00F4805020B1E06A20F00600E0624B
:1014600001E00020E06200BF002084F8240000BFFB
:101470001F48216A88621F48216AC8621E48216A83
:1014800008636FF00200216808602068806840F4FB
:10149000807021688860226802F14C0133462A4638
:1014A000206A00F06DFB01E01AE014E0206880681B
:1014B00000F46020B0F5602F06D12068806840F409
:1014C000A000216888600CE02068806840F48010EB
:1014D0002168886005E000BF002084F8240000E057
:1014E0000127384667E7000000240140002801403A
:1014F000C3070008330800081508000870B5044643
:10150000002500BF94F82400012801D1022070BDFD
:10151000012084F8240000BF2046FFF729F9054682
:10152000ADB92068806820F4807021688860206AE6
:1015300000F014F8054635B9A06A20F4885040F050
:101540000100A06203E0A06A40F04000A06200BF7A
:10155000002084F8240000BF2846D8E70146002276
:1015600091F82100022808D00420886300BF0020E1
:1015700081F8200000BF012070470868006820F053
:101580000E000B6818600868006820F001000B6806
:10159000186091F8403001209840CB6B58600120D2
:1015A00081F8210000BF002081F8200000BF104614
:1015B000E2E7000070B50446002594F821000228F7
:1015C00003D00420A0630125C1E02068006820F05A
:1015D0000E00216808602068006820F00100216882
:1015E00008605C492068884252D95A497839206895
:1015F000884201D1012047E0564964392068884279
:1016000001D1102040E0534950392068884201D16F
:10161000801539E04F493C392068884201D1801457
:1016200032E04C4928392068884202D14FF480309A
:101630002AE0484914392068884202D14FF48010CA
:1016400022E044492068884201D140041CE042491C
:101650002068884201D1012016E03F4914312068FA
:10166000884201D110200FE03B4928312068884290
:1016700001D1801508E038493C312068884201D109
:10168000801401E04FF480303349091F086051E0B5
:10169000304978392068884201D1012047E02D493E
:1016A00064392068884201D1102040E0294950392E
:1016B0002068884201D1801539E026493C392068EC
:1016C000884201D1801432E02249283920688842BA
:1016D00002D14FF480302AE01E4914392068884234
:1016E00002D14FF4801022E01A492068884201D1CB
:1016F00040041CE018492068884201D1012016E00E
:10170000154914312068884201D110200FE0124998
:1017100028312068884201D1801508E00E493C310B
:101720002068884201D1801401E04FF480300949DB
:1017300080394860012084F8210000BF002084F82F
:10174000200000BF606B10B12046616B88472846BF
:1017500070BD0000800002400804024070B50446DD
:10176000E06B05682068066894F840100420884003
:101770002840002875D006F004000028FAD0206820
:10178000006800F0200028B92068006820F00400FC
:1017900021680860D5492068884254D9D3497839EE
:1017A0002068884201D1042049E0D049643920688A
:1017B000884201D1402042E0CC495039206888421B
:1017C00001D100153BE0C9493C392068884202D16B
:1017D0004FF4804033E0C54928392068884202D15F
:1017E0004FF480202BE0C14914392068884202D18F
:1017F0004FF4800023E0BD492068884201D1C00435
:101800001DE0BB492068884201D1042017E0B84997
:1018100014312068884201D1402010E0B4492831B9
:101820002068884201D1001509E0B1493C312068A7
:10183000884202D14FF4804001E04FF48020AC494F
:10184000091F086054E0A94978392068884201D10D
:1018500004204AE0A54964392068884202D140202A
:1018600043E04CE0A14950392068884201D100157D
:101870003BE09E493C392068884202D14FF48040C9
:1018800033E09A4928392068884202D14FF48020F9
:101890002BE0964914392068884202D14FF4800029
:1018A00023E092492068884201D1C0041DE090499C
:1018B0002068884201D1042017E08D491431206846
:1018C000884201D1402010E08949283120688842AF
:1018D00001D1001509E086493C312068884202D1D7
:1018E0004FF4804001E04FF4802080498039486007
:1018F000E06A002802D02046E16A8847F4E094F8C4
:101900004010022088402840002871D006F00200D4
:101910000028FAD02068006800F0200040B9206854
:10192000006820F00A0021680860012084F8210086
:101930006E492068884254D96C49783920688842B9
:1019400001D1022049E0694964392068884201D107
:10195000202042E0654950392068884201D1401575
:101960003BE062493C392068884202D14FF4005084
:1019700033E05E4928392068884202D14FF40030B4
:101980002BE05A4914392068884202D14FF40010E4
:1019900023E056492068884201D180041DE0544963
:1019A0002068884201D1022017E051491431206893
:1019B000884201D1202010E04D492831206888421A
:1019C00001D1401509E04A493C312068884202D1E2
:1019D0004FF4005001E04FF400304549091F086002
:1019E00054E0424978392068884202D102204AE016
:1019F00057E03E4964392068884201D1202042E006
:101A00003A4950392068884201D140153BE03749B6
:101A10003C392068884202D14FF4005033E033490A
:101A200028392068884202D14FF400302BE02F493A
:101A300014392068884202D14FF4001023E02B496A
:101A40002068884201D180041DE02949206888422D
:101A500001D1022017E0264914312068884201D1C3
:101A6000202010E0224928312068884201D1401509
:101A700009E01F493C312068884202D14FF40050F0
:101A800001E04FF4003019498039486000BF002060
:101A900084F8200000BFA06A30B32046A16A8847BE
:101AA00022E094F84010082088402840E0B106F079
:101AB0000800C8B12068006820F00E0021680860A6
:101AC00094F8401001208840E16B48600120A06339
:101AD00084F8210000BF002084F8200000BF206BA4
:101AE00010B12046216B884770BD00008000024085
:101AF000080402400146002209B9012070471E4B2C
:101B0000086898420BD21D4B0868C01A1423B0FB1A
:101B1000F3F08000086419480838C8630AE0164BDF
:101B20000868C01A1423B0FBF3F080000864124860
:101B30000838C863022081F821000868026843F66B
:101B4000F0708243D1E901031843CB6818430B6955
:101B500018434B6918438B691843CB6918430243F8
:101B60000868026000208863012081F821000020BD
:101B700081F8200000BFC1E70804024008000240CD
:101B80002DE9F04104460D4616461F464FF0000869
:101B900000BF94F82000012802D10220BDE8F081A6
:101BA000012084F8200000BF94F8210001282CD1E6
:101BB000022084F821000020A0632068006820F043
:101BC0000100216808603B46324629462046FFF75F
:101BD00071F8E06A30B12068006840F00E002168BA
:101BE00008600BE02068006820F0040021680860AD
:101BF0002068006840F00A002168086020680068DA
:101C000040F001002168086006E000BF002084F871
:101C1000200000BF4FF002084046BFE703480069BC
:101C200040F0800001490861002070470020024018
:101C30002DE9FE4F05468B4617469846012600249F
:101C40000020029000BF2448007E012802D102201B
:101C5000BDE8FE8F01202049087600BF4CF25030CD
:101C6000FFF7A8F8064686BB012D02D1012002909D
:101C700006E0022D02D10220029001E00420029031
:101C800000241EE02201B946C24648465146FEF7EE
:101C90002EFB80B20190022000FB04B0009001995D
:101CA000FFF736F84CF25030FFF784F806460B4841
:101CB000006920F001000949086106B104E0601CD8
:101CC000C4B202988442DDDB00BF00BF002002499D
:101CD000087600BF3046BBE7E80400200020024041
:101CE00000200849096901F0800151B10649054AFF
:101CF0005160064951601146096901F0800101B146
:101D0000012070470020024023016745AB89EFCDD9
:101D10002DE9F847024600239C467BE14FF001087D
:101D200008FA03F4D1F8008008EA0400A0427DD14B
:101D3000DFF8F4A2D1F80480A8EB0A09D0453AD024
:101D400014DCB8F1030F50D009DCB8F1000F31D02A
:101D5000B8F1010F1CD0B8F1020F49D120E0B8F161
:101D6000110F18D0B8F1120F42D11EE0B9F5881F3B
:101D700025D006DCB9F5803F20D0B9F5801F37D1DA
:101D80001AE0B9F5001F18D0B9F5041F30D117E0DB
:101D9000D1F80CC02DE0D1F80C8008F1040C28E03B
:101DA000D1F80C8008F1080C23E0D1F80C8008F180
:101DB0000C0C1EE000BF00BF00BF00BF00BF00BF93
:101DC000D1F80880B8F1000F02D14FF0040C0BE0FD
:101DD000D1F80880B8F1010F03D14FF0080C14615D
:101DE00002E04FF0080C546103E04FF0000C00E0FB
:101DF00000BF00BFFF2801D8904601E002F10408AF
:101E00004646FF2802D84FEA830803E0A3F10808FA
:101E10004FEA88084746D6F800804FF00F0909FAC4
:101E200007F928EA09080CFA07F900E07AE048EA1D
:101E30000908C6F80080D1F8048008F08058B8F18D
:101E4000805F6FD100BFDFF8E481D8F8188048F0D8
:101E50000108DFF8D891C9F81880C846D8F818806A
:101E600008F00108CDF8008000BF00BF4FEAB93884
:101E70004FEA930958F829504FEA83784FEA1879C6
:101E80004FF00F0808FA09F825EA0805DFF8A081E5
:101E9000424502D14FF0000824E0DFF89881424526
:101EA00002D14FF001081DE0DFF88C81424502D1DC
:101EB0004FF0020816E0DFF88481424502D14FF06E
:101EC00003080FE0DFF87881424502D14FF00408A3
:101ED00008E0DFF87081424502D14FF0050801E0CB
:101EE0004FF006084FEA83794FEA197908FA09F8A2
:101EF00048EA0505DFF850814FEA930948F8295070
:101F0000D1F8048008F48038B8F5803F0BD1DFF8B1
:101F10003C81D8F8008048EA0008DFF83091C9F821
:101F200000800AE075E0DFF82481D8F8008028EA14
:101F30000008DFF81891C9F80080D1F8048008F48F
:101F40000038B8F5003F0ED1DFF8008108F1040831
:101F5000D8F8008048EA0008DFF8F09009F1040999
:101F6000C9F800800DE0DFF8E48008F10408D8F833
:101F7000008028EA0008DFF8D49009F10409C9F8C4
:101F80000080D1F8048008F48018B8F5801F0ED1C5
:101F9000DFF8B88008F10808D8F8008048EA00089F
:101FA000DFF8A89009F10809C9F800800DE0DFF812
:101FB0009C8008F10808D8F8008028EA0008DFF8BB
:101FC0008C9009F10809C9F80080D1F8048008F460
:101FD0000018B8F5001F0ED1DFF8708008F10C086A
:101FE000D8F8008048EA0008DFF8609009F10C0991
:101FF000C9F800800DE0DFF8548008F10C08D8F82B
:10200000008028EA0008DFF8449009F10C09C9F8BB
:1020100000805B1CD1F8008028FA03F8B8F1000FAB
:102020007FF47CAEBDE8F88700001110001002407C
:1020300000080140000C0140001001400014014064
:1020400000180140001C014008000140000401404C
:10205000024693680B400BB1012000E0002070475E
:10206000C2680A400AB1416100E0016170470AB1EB
:10207000016101E00B040361704700000148006842
:1020800070470000080000200348006803490978F1
:102090000844014908607047080000201000002033
:1020A00010B50848006840F0100006490860032099
:1020B00000F0C6F80F2000F007F800F049F8002003
:1020C00010BD00000020024070B588B00446002515
:1020D000002600222146192000F074F8192000F093
:1020E00061F800BF1648806940F4006014498861B7
:1020F0000846806900F40060019000BF00BF02A99B
:1021000003A800F0A9FA00F0DFFA05460D48B5FB78
:10211000F0F0461E0C480D49086040F2E7310B48CC
:10212000C160466000210161816000F085FD20B939
:10213000064800F0BDFD08B070BD0120FBE70000BF
:102140000010024040420F00002C0140A804002073
:1021500008B500BF1148806940F001000F4988614F
:102160000846806900F00100009000BF00BF00BF7A
:102170000846C06940F08050C8610846C06900F058
:102180008050009000BF00BF00BF0549486820F0A4
:10219000E06040F00070486000BF08BD00100240E1
:1021A0000000014001460846002809DB00F01F033B
:1021B00001229A4043099B0003F1E023C3F8002168
:1021C00000BF70472DE9F05F80460D461646002798
:1021D00002F0BAFC074639462A46334601F00700AA
:1021E000C0F1070ABAF1040F02D94FF0040A01E066
:1021F000C0F1070AD14600F1040ABAF1070F02D272
:102200004FF0000A01E0A0F1030AD4464FF0010AA2
:102210000AFA09FAAAF1010A0AEA020A0AFA0CFA07
:102220004FF0010B0BFA0CFBABF1010B0BEA030BAC
:102230004AEA0B042146404602F08EFCBDE8F09FBE
:1022400000BF00F00702064B19684FF6FF03194064
:10225000044B0B4343EA0221014B196000BF704756
:102260000CED00E00000FA052DE9F04385B00646CC
:1022700042A30FCB01AC0FC444A0006800904FF004
:102280000008002500270024A146042E36D004DCD7
:10229000012E3BD0022E6BD15FE0082E32D0102EE3
:1022A00066D13B484468006800F0807000B301A824
:1022B000C4F38341475C04F4803070B13448406813
:1022C000C0F340401DF8008004F4803040B1314834
:1022D000B0FBF8F000FB07F502E02F4807FB00F524
:1022E0002B48406800F48000B0F5800F01D1A9466A
:1022F00003E068000321B0FBF1F93AE000F0F4F9E3
:10230000814636E000F0F0F9814632E02048046A68
:1023100004F44070B0F5807F05D104F0020010B1E4
:102320004FF4004918E004F44070B0F5007F07D185
:102330001748406A00F0020010B149F640490BE02E
:1023400004F44070B0F5407F06D11148006800F4F5
:10235000003008B14FF224490BE000F0B5F90C4908
:102360004968C1F38131491C4900B0FBF1F900E033
:1023700000BF00BF484605B0BDE8F0830203040576
:10238000060708090A0B0C0D0E0F101001020000C1
:102390000010024000127A0000093D00F8B5044622
:1023A00000260025207800F0010000286BD00027CF
:1023B0004348C06900F0805070B900BF4048C06910
:1023C00040F080503E49C8610846C06900F0805026
:1023D000009000BF00BF01273A48006800F48070F9
:1023E000B0B93848006840F4807036490860FFF79B
:1023F00045FE064606E0FFF741FE801B642801D932
:102400000320F8BD2F48006800F480700028F2D047
:102410002B48006A00F440752DB3A08800F440708A
:10242000A84220D02648006A20F4407501202649A1
:102430000860002008602248056205F0010090B1A4
:10244000FFF71CFE064608E0FFF718FE801B41F26E
:102450008831884201D90320D3E71948006A00F087
:1024600002000028F0D01648006A20F4407061682D
:10247000084313490862012F04D10846C06920F0BF
:102480008050C86100BF207800F00200022807D108
:102490000B48406820F44040A16808430849486060
:1024A000207800F01000102807D10548406820F47B
:1024B000800061690843024948600020A1E70000EC
:1024C00000100240007000404004424270B50446D3
:1024D0000D460CB9012070BD5A48006800F0070095
:1024E000A8420ED25748006820F0070028435549FB
:1024F00008600846006800F00700A84201D00120EB
:10250000E9E7207800F0020002281DD1207800F0D1
:102510000400042805D14C48406840F4E0604A4972
:102520004860207800F00800082805D14648406837
:1025300040F46050444948604348406820F0F0004F
:10254000A168084340494860207800F0010078B352
:102550006068012806D13C48006800F4003090B95A
:102560000120B8E76068022806D13748006800F00B
:10257000007040B90120AEE73348006800F0020067
:1025800008B90120A7E73048406820F003006168DF
:1025900008432D494860FFF771FD064609E0FFF743
:1025A0006DFD801B41F28831884202D9032092E7F9
:1025B00007E02548406800F00C006168B0EB810F2F
:1025C000EDD12048006800F00700A8420ED91D4850
:1025D000006820F0070028431A4908600846006890
:1025E00000F00700A84201D0012074E7207800F035
:1025F0000400042807D11448406820F4E060E16832
:10260000084311494860207800F00800082808D1E4
:102610000D48406820F46050216940EAC1000A4931
:10262000486000F061F808494968C1F30311074A9E
:10263000515CC8400649086006480068FFF744FD41
:10264000002048E70020024000100240B68E00083B
:10265000140000200C0000200F2202600D4A526876
:1026600002F0030242600B4A526802F0F0028260FC
:10267000084A526802F4E062C260064A526802F4F4
:102680006052D2080261044A126802F007020A602E
:10269000704700000010024000200240014800681E
:1026A000704700001400002000B5FFF7F7FF044951
:1026B0004968C1F30221034A515CC84000BD0000D3
:1026C00000100240C68E000800B5FFF7E7FF04497E
:1026D0004968C1F3C221034A515CC84000BD0000F3
:1026E00000100240C68E0008F0B585B00FF26C0CE9
:1026F0009CE8E01001A8A0E8E0101CA52D6800955A
:1027000000210022002300240020194D696801F0F7
:102710000C05F5B1042D02D0082D19D101E01548A2
:1027200019E001ADC1F38346AC5D01F4803555B1CC
:102730000F4D6D68C5F340451DF805200D4D6543EF
:10274000B5FBF2F302E00C4D04FB05F3184602E082
:1027500000BF084800BF00BF05B0F0BD020304057C
:10276000060708090A0B0C0D0E0F101001020000DD
:102770000010024000127A0000093D00F8B504463E
:102780000CB90120F8BD207800F00100002878D0B5
:10279000F848406800F00C0004280CD0F548406868
:1027A00000F00C00082811D1F248406800F4803095
:1027B000B0F5803F0AD1EF48006800F400300028EF
:1027C0005FD0606800285CD10120DBE700BF606853
:1027D000B0F5803F06D1E748006840F48030E54915
:1027E000086028E0606858B9E248006820F480304A
:1027F000E04908600846006820F4802008601AE07C
:102800006068B0F5A02F0BD1DA48006840F4802052
:10281000D84908600846006840F4803008600AE043
:10282000D448006820F48030D24908600846006827
:1028300020F48020086000BF606888B1FFF71EFCAC
:10284000054606E0FFF71AFC401B642801D9032067
:1028500098E7C848006800F400300028F2D010E083
:10286000FFF70CFC054606E0FFF708FC401B642858
:1028700001D9032086E7BF48006800F40030002833
:10288000F2D1207800F00200022857D1B948406800
:1028900000F00C0050B1B748406800F00C00082868
:1028A00018D1B448406800F4803098B9B148006845
:1028B00000F0020020B12069012801D0012061E769
:1028C000AC48006820F0F800616940EAC100A949FD
:1028D000086033E02069E8B10120A7490860FFF7EC
:1028E000CDFB054606E0FFF7C9FB401B022801D9D6
:1028F000032047E79F48006800F002000028F2D05C
:102900009C48006820F0F800616940EAC1009949DC
:10291000086013E0002098490860FFF7AFFB054608
:1029200006E0FFF7ABFB401B022801D9032029E793
:102930009048006800F002000028F2D1207800F0F2
:10294000080008282DD1A069B8B101208B49086082
:10295000FFF794FB054606E0FFF790FB401B0228BB
:1029600001D903200EE78348406A00F002000028E6
:10297000F2D0012001F0B8FA13E000207F4908608E
:10298000FFF77CFB054606E0FFF778FB401B0228BB
:1029900001D90320F6E67748406A00F002000028DB
:1029A000F2D1207800F00400042873D10027714888
:1029B000C06900F0805070B900BF6E48C06940F037
:1029C00080506C49C8610846C06900F08050009092
:1029D00000BF00BF01276A48006800F48070B0B9EA
:1029E0006748006840F4807065490860FFF746FB5F
:1029F000054606E0FFF742FB401B642801D903208F
:102A0000C0E65F48006800F480700028F2D000BF84
:102A1000E068012806D15748006A40F00100554996
:102A2000086227E0E06858B95248006A20F00100C7
:102A3000504908620846006A20F00400086219E064
:102A4000E06805280BD14B48006A40F00400494972
:102A500008620846006A40F0010008620AE0454842
:102A6000006A20F00100434908620846006A20F02D
:102A70000400086200BFE068A0B1FFF7FFFA054656
:102A800009E0FFF7FBFA401B41F28831884202D986
:102A9000032077E622E03748006A00F002000028B1
:102AA000EFD012E0FFF7EAFA054608E0FFF7E6FA92
:102AB000401B41F28831884201D9032062E62D484B
:102AC000006A00F002000028F0D1012F05D129484A
:102AD000C06920F080502749C86100BFE069C8B3D1
:102AE0002448406800F00C00082860D0E069022803
:102AF00048D1002020490866FFF7C0FA054606E0E5
:102B0000FFF7BCFA401B022801D903203AE6194816
:102B1000006800F000700028F2D1206AB0F5803F14
:102B200007D11448406820F40030A16808431149D7
:102B30004860D4E9080108430E49496821F474113A
:102B400008430C49486001200B490866FFF796FAD4
:102B5000054607E03DE0FFF791FA401B022801D946
:102B600003200FE60348006800F000700028F2D050
:102B70002FE0000000100240000042428004424268
:102B800000700040002014490866FFF777FA0546F8
:102B900006E0FFF773FA401B022801D90320F1E594
:102BA0000E48006800F000700028F2D111E0E069E2
:102BB000012800D1E6E50948466806F48031206A1C
:102BC000814204D106F47011606A814201D0012073
:102BD000D8E50020D6E50000000042420010024087
:102BE0007047704710B5024600BF92F83C000128BC
:102BF00001D1022010BD012082F83C0000BF02205C
:102C000082F83D00106843681068846823F0700300
:102C10000868034324F08004486804431068436054
:102C200010688460012082F83D0000BF002082F817
:102C30003C0000BF00BFDDE710B504460CB9012021
:102C400010BD94F83D0028B9002084F83C002046CF
:102C500000F00CF8022084F83D00211D206801F0EE
:102C6000F9FA012084F83D000020E9E738B5044670
:102C70000D492068884215D100BF0C48C06940F05A
:102C800010000A49C8610846C06900F010000090B1
:102C900000BF00BF002211463620FFF793FA36200E
:102CA000FFF780FA38BD000000100040001002401D
:102CB00001460868C06840F001000B68D8600868E9
:102CC000806800F00702062A05D00868006840F016
:102CD00001000B681860002070472DE9F0410446A0
:102CE0000D4614B90120BDE8F08194F83D0028B9E3
:102CF000002084F83C00204600F044F8022084F8CC
:102D00003D002068806844F207018843216888609C
:102D1000211D206801F09EFA2068D0F80880206804
:102D200086692068076A286840EA080840F203308C
:102D30008643A969A86840EA0120064340F60C4092
:102D400086434FF2F0008643E969E86840EA0120D3
:102D5000064328690001296A40EA0130064327F04A
:102D600022076969686840EA011007432068C0F8D3
:102D700008802068866120680762012084F83D0091
:102D80000020B0E710B586B0044600200290039002
:102D9000049005902068B0F1804F45D100BF604895
:102DA000C06940F001005E49C8610846C06900F092
:102DB0000100019000BF00BF00BF0846806940F0DD
:102DC000040088610846806900F00400019000BF9B
:102DD00000BF00BF0846806940F0080088610846CF
:102DE000806900F00800019000BF00BF4FF4004070
:102DF000029000200390049002A94A48FEF788FF41
:102E00000820029000200390049002A94648FEF793
:102E10007FFF00BF4549486820F4407040F0E06003
:102E200040F48070486079E041492068884224D1AC
:102E300000BF3B48C06940F002003949C8610846FC
:102E4000C06900F00200019000BF00BF00BF08464B
:102E5000806940F0040088610846806900F0040041
:102E6000019000BF00BFC02002900020039004909A
:102E700002A92C48FEF74CFF50E02E4920688842FA
:102E800024D100BF2648C06940F004002449C8612D
:102E90000846C06900F00400019000BF00BF00BFF9
:102EA0000846806940F0080088610846806900F0A3
:102EB0000800019000BF00BFC020029000200390D6
:102EC000049002A91848FEF723FF27E01A4920685A
:102ED000884223D100BF1248C06940F00800104961
:102EE000C8610846C06900F00800019000BF00BF3B
:102EF00000BF0846806940F0040088610846806988
:102F000000F00400019000BF00BF032002900020E9
:102F10000390049002A90348FEF7FAFE06B010BD24
:102F20000010024000080140000C01400000014078
:102F30000004004000080040000C004030B504468A
:102F40000D4615B1042D0CD105E0012200212068A9
:102F500001F0CEF910E001220421206801F0C8F947
:102F60000AE001220021206801F0C2F901220421B7
:102F7000206801F0BDF900BF00BF2068006840F084
:102F8000010021680860002030BD704710B504467C
:102F900020680069C0F34000D8B12068C068C0F361
:102FA0004000B0B16FF00200216808610120207775
:102FB0002068806900F0030018B12046FFF7E5FFA4
:102FC00005E0204600F0ADF8204600F0ABF8002008
:102FD000207720680069C0F38000D8B12068C068FD
:102FE000C0F38000B0B16FF00400216808610220D6
:102FF00020772068806900F4407018B12046FFF700
:10300000C4FF05E0204600F08CF8204600F08AF866
:103010000020207720680069C0F3C000D8B1206884
:10302000C068C0F3C000B0B16FF00800216808614B
:10303000042020772068C06900F0030018B1204602
:10304000FFF7A3FF05E0204600F06BF8204600F0F4
:1030500069F80020207720680069C0F30010D8B11B
:103060002068C068C0F30010B0B16FF01000216894
:103070000861082020772068C06900F4407018B10A
:103080002046FFF782FF05E0204600F04AF8204680
:1030900000F048F8002020772068006900F0010067
:1030A00058B12068C06800F0010030B16FF0010035
:1030B00021680861204600F037F820680069C0F3F5
:1030C000C01058B12068C068C0F3C01030B16FF0B4
:1030D0008000216808612046FFF782FD20680069B2
:1030E000C0F3801058B12068C068C0F3801030B1C0
:1030F0006FF0400021680861204600F02DF820683C
:103100000069C0F3401058B12068C068C0F3401097
:1031100030B16FF02000216808612046FFF761FDA3
:1031200010BD70477047000010B50446074920687D
:10313000884201D1FEF7A8FF05492068884204D1E2
:1031400004480068401C0349086010BD002C014081
:103150000010004000000020704770472DE9F04744
:103160000446206805682068C668206847694FF0F3
:103170000008C14605F00F08B8F1000F0AD105F0AC
:10318000200038B106F0200020B1204601F0EBF815
:10319000BDE8F087B8F1000F6DD007F0010018B955
:1031A00006F49070002866D005F0010030B106F4F6
:1031B000807018B1E06B40F00100E06305F004009E
:1031C00030B107F0010018B1E06B40F00200E0639D
:1031D00005F0020030B107F0010018B1E06B40F0DB
:1031E0000400E06305F0080030B107F0010018B1F9
:1031F000E06B40F00800E063E06B68B305F020008E
:1032000028B106F0200010B1204601F0ACF820688B
:103210004069C0F38019E06B00F0080010B9B9F103
:10322000000F22D0204601F07EF82068406900F0AF
:103230004000B0B12068406920F04000216848613A
:10324000606B50B11748616B4863606BFEF7B2F971
:1032500010B1606B416B88470CE02046FFF77DFFA3
:1032600008E02046FFF779FF04E02046FFF775FFEE
:103270000020E0638CE705F0800030B106F08000AC
:1032800018B1204601F092F982E705F0400030B114
:1032900006F0400018B1204601F055F878E700BF6D
:1032A00076E700001343000810B504460CB901206E
:1032B00010BDA06900B100E000BF94F8390028B942
:1032C000002084F83800204600F028F8242084F8F4
:1032D00039002068C06820F400502168C86020468A
:1032E00001F094F82068006920F49040216808619A
:1032F0002068406920F02A00216848612068C06881
:1033000040F400502168C8600020E063202084F869
:10331000390084F83A000020CAE7000010B586B0F2
:103320000446002002900390049005901E492068F6
:10333000884236D100BF1D48806940F480401B4957
:1033400088610846806900F48040019000BF00BF9A
:1033500000BF0846806940F0040088610846806923
:1033600000F00400019000BF00BF48150290022049
:1033700003900320059002A90D48FEF7C9FC4FF405
:103380008060029000200390049002A90848FEF794
:10339000BFFC002205212520FEF714FF2520FEF7A3
:1033A00001FF06B010BD00000038014000100240CF
:1033B000000801402DE9F84304460D4616461F4615
:1033C0004FF0000994F83A00202860D105B116B9F1
:1033D0000120BDE8F88300BF94F83800012801D12E
:1033E0000220F6E7012084F8380000BF0020E063E7
:1033F000222084F83A00FEF741FE8146A685E68544
:1034000039E0E08D401EE085A068B0F5805F1BD1FB
:103410004B46002220212046009701F0FBF808B11E
:103420000320D6E7A846206938B920684068C0F371
:103430000800A8F80000AD1C1DE020684068C0B27C
:10344000A8F800006D1C16E04B4600222021204603
:10345000009701F0DFF808B10320BAE7206920B92E
:103460002068406805F8010B05E02068406800F01E
:103470007F0005F8010BE08D0028C2D1202084F8E0
:103480003A0000BF002084F8380000BFA1E7022006
:103490009FE77047704700BFFEE700000B48806958
:1034A00040F01000094988610948406820F47F40D5
:1034B000074948600846406840F44C504860084658
:1034C000C06840F44060C8607047000000100240CF
:1034D00000100140C10000BF0A1EA1F10101FBD193
:1034E0007047000010B54FF480600E4948610846EF
:1034F000406820F4704048600846406840F44050FE
:103500004860C81408610220FFF7E4FF4FF48060B0
:10351000044908610220FFF7DDFF4FF48060014994
:10352000486110BD0010014070B505462148406853
:1035300020F470401F4948600846406840F44050FD
:103540004860C81408610846406820F4704048602C
:103550000846406840F400404860C81408614010C4
:10356000486100261BE04FF4806012490861022088
:10357000FFF7B0FF6006040E0E48806800F400609C
:1035800008B144F001040120FFF7A4FF4FF480606C
:10359000084948610520FFF79DFF701CC6B2082E40
:1035A000E1DB15B100F008F801E0FFF79BFF2046D2
:1035B00070BD00000010014010B54FF480600E494E
:1035C00048610846406820F47040486008464068FA
:1035D00040F440504860C81448610220FFF77AFF69
:1035E0004FF48060044908610220FFF773FF4FF435
:1035F00080600149486110BD0010014070B504466B
:103600001948406820F470401749486008464068EF
:1036100040F44050486008154861002520E004F05F
:103620008000802803D100010F49086103E04FF4B6
:1036300000600D4948616006040E0220FFF74AFF52
:103640004FF48060084908610520FFF743FF4FF4FD
:103650008060054948610220FFF73CFF681CC5B245
:10366000082DDCDB70BD00000010014010B50F48D4
:10367000406820F470400D4948600846406840F4B6
:1036800040504860C8140861401008610520FFF7E9
:1036900021FF4FF40060054948610520FFF71AFF3C
:1036A0004FF480600149486110BD000000100140E6
:1036B00010B50E48406820F470400C494860084638
:1036C000406840F440504860081548614000486137
:1036D000401008610520FFF7FDFE4FF4006003492C
:1036E00008610520FFF7F6FE10BD00000010014044
:1036F00010B51648406820F47040144948600846E8
:10370000406840F400404860C81408610861012026
:10371000FFF7E0FE4FF480600C49086106E0641C8E
:10372000B4F5803F02D34FF0FF3010BD07488068EA
:1037300000F400600028F2D14FF480600349486132
:103740000220FFF7C7FE0020EFE700000010014055
:1037500070B5084C00204FF0E02108614861886195
:1037600072B665682E46206880F3088800BFB047AF
:1037700070BD000000F0FF1F70B5254805884FF4AC
:1037800000712448FEF764FC65F35F00204908805F
:103790000846458820211F48FEF75AFC65F35F0064
:1037A0001B494880002430E0194830F814004FF2DB
:1037B0000F0108400F2803D101201749085522E0C6
:1037C000134830F814004FF20F010840B0F5704F65
:1037D00003D102201049085515E00D4830F81400B7
:1037E0004FF20F01084018B903200B4908550AE0B1
:1037F000074830F814004FF20F010840884202D108
:10380000002005490855601CC4B2042CCCDB70BDF7
:1038100022000020000C01401800002010B587484D
:103820000088002872D186480078032803D0844895
:10383000007802282BD183480088401C81490880E9
:1038400008460088142861D17D48407803280ED1AD
:1038500001207D49087001210220FDF72BF901218B
:103860000846FDF727F979A0FCF754FD4EE000204B
:10387000754908700B207A490870084690F90010C5
:1038800078A0FCF747FD764890F9000010BD6C4821
:103890004078032803D06A48407802282BD1694831
:1038A0000088401C674908800846008814282DD1EC
:1038B0006348007803280ED1012063490870012174
:1038C0000220FDF7F7F801210846FDF7F3F85FA0A5
:1038D000FCF720FD1AE000205B490870F5206049E4
:1038E0000870084690F900105EA0FCF713FD5C48D4
:1038F00090F90000CAE752480078012803D05048E8
:103900004078012802D100204E4908804D480088A7
:1039100000287DD14C4800780128FAD1474800881A
:10392000401C464908804648007803280BD10120F6
:103930004E49087001210846FDF7BCF8012102201C
:10394000FDF7B8F846E049480078012817D13C480F
:103950000078012813D1002044490870002101207B
:10396000FDF7A8F83E480078401C40B23C4908707A
:10397000084690F900103BA0FCF7CCFC2AE0304848
:10398000407803280BD10120394908700121022019
:10399000FDF790F801210846FDF78CF81AE034484D
:1039A0000078012816D126484078012812D100203D
:1039B0002F49087000210220FDF77CF82848007884
:1039C000401E40B226490870084690F9001025A014
:1039D000FCF7A0FC19480088B0F5167F21DB002019
:1039E000164908801849087000210220FDF762F886
:1039F00000210120FDF75EF81EA0FCF78BFC1848A3
:103A00000078022806D0164890F90000801C00E0DB
:103A100007E018B9124890F9000037E70020104974
:103A200008700648008828B90648008810B90020A8
:103A30000B4908700A4890F9000027E72000002091
:103A4000180000202C0000201F000020446576652F
:103A50006C6F706572204D6F6465200D0A00000068
:103A60001E0000202564200D0A0000001C0000201C
:103A70001D00002045786974204D6F6465200D0A93
:103A8000000000000EB50020009001900290234835
:103A900023490860811522488160012101730021BA
:103AA00001754FF46021C16100201D494860042167
:103AB0001B480161FDF744FB08B1FDF711F909202E
:103AC0000090012001900720029069461448FDF7FC
:103AD00065FA08B1FDF704F9082000900220019072
:103AE00069460F48FDF75AFA08B1FDF7F9F80F20BB
:103AF00000900320019069460948FDF74FFA08B18C
:103B0000FDF7EEF80E20009004200190694604486D
:103B1000FDF744FA08B1FDF7E3F80EBD00240140BB
:103B20005001002008B500BF0A48406940F001007C
:103B3000084948610846406900F00100009000BF54
:103B400000BF002205210B20FEF73CFB0B20FEF7F7
:103B500029FB08BD0010024000B585B0002001908F
:103B600002900390049000BF3A48806940F0100032
:103B7000384988610846806900F01000009000BF55
:103B800000BF00BF0846806940F004008861084615
:103B9000806900F00400009000BF00BF00BF08462D
:103BA000806940F0080088610846806900F00800DC
:103BB000009000BF00BF012251032748FEF757FACB
:103BC000002244F2C8312448FEF751FA00224FF295
:103BD00010112248FEF74BFA42F2C8300190012042
:103BE0000290002003900220049001A91A48FEF7D9
:103BF0008FF84FF480400190012002900020039044
:103C00000120049001A91448FEF782F84FF41C40EB
:103C1000019000200290039001A90F48FEF778F868
:103C20004FF210100190012002900020039002201A
:103C3000049001A90948FEF76BF84FF40870019051
:103C400000200290039001A90448FEF761F805B036
:103C500000BD00000010024000100140000C0140B7
:103C600000B58BB0242102A8FCF749FC002000908D
:103C700001904FF080401949086000204860002101
:103C8000164881604FF6FF71C160002101618161BA
:103C90000320029000200390012004900020059052
:103CA0000F20069000200790012008900020099026
:103CB0000F200A9002A90948FFF70FF808B1FDF795
:103CC0000FF800200090019069460448FEF78AFF33
:103CD00008B1FDF705F80BB000BD0000240200207C
:103CE00000B58BB0242102A8FCF709FC002000904D
:103CF00001901948194908600020486000211748C0
:103D000081604FF6FF71C160002101618161032074
:103D100002900020039001200490002005900F20C5
:103D200006900020079001200890002009900F20A5
:103D30000A9002A90948FEF7D0FF08B1FCF7D0FFAE
:103D400000200090019069460448FEF74BFF08B13F
:103D5000FCF7C6FF0BB000BD000400406402002069
:103D600000B58BB0242102A8FCF7C9FB002000900D
:103D7000019019481949086000204860002117483F
:103D800081604FF6FF71C1600021016181610320F4
:103D900002900020039001200490002005900F2045
:103DA00006900020079001200890002009900F2025
:103DB0000A9002A90948FEF790FF08B1FCF790FFAE
:103DC00000200090019069460448FEF70BFF08B1FF
:103DD000FCF786FF0BB000BD00080040A4020020E5
:103DE00000B58BB0242102A8FCF789FB00200090CD
:103DF00001901948194908600020486000211748BF
:103E000081604FF6FF71C160002101618161032073
:103E100002900020039001200490002005900F20C4
:103E200006900020079001200890002009900F20A4
:103E30000A9002A90948FEF750FF08B1FCF750FFAD
:103E400000200090019069460448FEF7CBFE08B1BF
:103E5000FCF746FF0BB000BD000C0040E402002060
:103E60001CB50020009001900D480E4908601320F9
:103E7000486000210B4881602721C16000218161D9
:103E8000FEF7DAFE08B1FCF72BFF0020009001904E
:103E900069460448FEF7A6FE08B1FCF721FF1CBDE9
:103EA000001000402403002010B50B480B490860A7
:103EB0004FF4E1304860002108488160C160016131
:103EC0000C21416100218161C161FFF7EDF908B169
:103ED000FCF706FF10BD0000003801406804002018
:103EE00000BFFEE700BFFEE708B508490968C9083A
:103EF0004FF47A72B1FBF2F14143009100BF00BF71
:103F000000994A1E00920029F9D108BD1400002032
:103F10000146022906D003290DD0042912D0052913
:103F20001ED116E04FF08042526A10B200224FF0CC
:103F300080435A6216E00C4A126810B200220A4B03
:103F40001A600FE0094A126810B20022074B1A608B
:103F500008E0074A126810B20022054B1A6001E01F
:103F6000002000BF00BF7047240400402408004028
:103F7000240C00401CB50020019000900F48006800
:103F8000C06800F02000C0B16423012269460B48DC
:103F9000FFF710FA002301AA69460948006803F0F8
:103FA000E1FB00BF019838B14FF08050054908602F
:103FB000BFF34F8FBFF36F8F00BF1CBD680400209D
:103FC0005400002004ED00E030B503460C461546D1
:103FD000002206E0184600F0AEF824F812009B1C00
:103FE000521CAA42F6D330BD2DE9F05F80468A46C6
:103FF0001746B8F1006F02D33B48804504D33BA07D
:10400000FCF788F9BDE8F09FFDF76AFEA8F1006BA8
:104010004FEADB25CBF34909C9F58064A74200D8F4
:10402000BCB25BE04FF0006101EBC5204A1435499A
:10403000FFF7CAFF00260BE009EB0600314931F813
:1040400010004FF6FF71884200D003E0701C86B26A
:10405000A642F1DB00BFA64225DA4FF0006101EB7A
:10406000C520FCF741FE4CF25030FCF7A3FE264879
:10407000006920F0020024490861002608E03AF8AF
:10408000160006EB09011F4A22F81100701C86B2C7
:10409000A642F4DB4FF0006101EBC5204A14194938
:1040A00000F034F808E04CF25030FCF783FE224672
:1040B0005146404600F02AF8A74200D10FE06D1C9F
:1040C0004FF000090AEB440A08EB44083F1BB7F520
:1040D000806F02D94FF4806400E0BCB2A2E700BF59
:1040E000FDF79CFD00BF8DE700000408464C4153DE
:1040F000482041444452204552524F52A3A10D0A38
:1041000000000000080D0020002002402DE9F041D1
:1041100004460E461746002509E036F815C06246EB
:10412000002321460120FDF783FDA41C6D1CBD4228
:10413000F3D3BDE8F08101460888704710B500BF91
:10414000502080F31188BFF34F8FBFF36F8F00BFF4
:1041500003F022FE18B14FF080500449086000BF00
:10416000002080F3118800BF10BD000004ED00E0C6
:1041700000B595B028210BA8FCF7C1F9142106A8B9
:10418000FCF7BDF918216846FCF7B9F902200B903D
:1041900001200F9010201090002012900BA8FEF725
:1041A000EDFA08B1FCF79CFD0F2006900020079067
:1041B000089009900A90002106A8FEF787F908B137
:1041C000FCF78EFD02200090002002906846FEF76A
:1041D000E5F808B1FCF784FD15B000BD1148006892
:1041E00040F001000F490860084640680E49084049
:1041F0000C494860084600680C49084009490860B5
:104200000846006820F4802008600846406820F4D2
:10421000FE0048604FF41F008860C803044908602E
:1042200070470000001002400000FFF8FFFFF6FE9C
:1042300008ED00E010B50248FEF7A8FE10BD000032
:10424000A804002010B50248FEF7A0FE10BD000033
:104250002403002010B50268204B98420ED0204B5A
:1042600098420BD0B0F1804F08D01E4B984205D039
:104270001D4B984202D01D4B984203D122F0700290
:104280004B681A43154B98420ED0154B98420BD0F1
:10429000B0F1804F08D0134B984205D0124B984292
:1042A00002D0124B984203D122F44072CB681A43D9
:1042B00022F080034C6943EA040202608B68C36207
:1042C0000B688362054B984202D0054B984201D19E
:1042D0000B6903630123436110BD0000002C014002
:1042E000003401400004004000080040000C004081
:1042F00030B501F01F05012404FA05F3046A9C435C
:104300000462046A01F01F0502FA05F52C430462F9
:1043100030BD70B505466C6A0020E085E08420461B
:10432000FEF71BFF70BD0168C96821F49071026837
:10433000D1600168496921F00101026851612021C1
:1043400080F83A10704710B504462068C06820F025
:1043500040002168C860202084F839002046FFF71B
:1043600099F8002010BD70B5044694F83A00222850
:104370004AD1A068B0F5805F13D1A56A206940B921
:1043800020684068C0F308002880A06A801CA062F2
:1043900019E020684068C0B22880A06A401CA06272
:1043A00011E0206938B920684068C1B2A26A501C87
:1043B000A062117007E02068406800F07F01A26AE7
:1043C000501CA0621170E08D401E80B2E085C8B91B
:1043D0002068C06820F020002168C8602068C0689C
:1043E00020F480702168C8602068406920F00100D6
:1043F00021684861202084F83A002046FFF749F8F8
:10440000002070BD0020FCE70220FAE770B50446EA
:104410002168096921F44051E26811432268116161
:104420002269A1681143626941EA02052168C968ED
:1044300041F20C62914329432268D16021684969A5
:1044400021F44071A269114322685161564A2168E2
:10445000914254D1FEF738F900EBC00101EB001195
:1044600062689200B1FBF2F100EBC00202EB0012B5
:1044700063689B00B2FBF3F26423B2FBF3F202EB3E
:10448000C20303EB0212A1EB8201322202EB011103
:104490006422B1FBF2F101F0F00100EBC00202EB8B
:1044A000001263689B00B2FBF3F26423B2FBF3F2E9
:1044B00001EB021200EBC00101EB001163689B00ED
:1044C000B1FBF3F100EBC00303EB00136668B60029
:1044D000B3FBF6F36426B3FBF6F303EBC30606EB7C
:1044E0000313A1EB8301322303EB01116423B1FB1E
:1044F000F3F101F00F0111442268916053E0FEF7DF
:10450000D3F800EBC00101EB001162689200B1FB2F
:10451000F2F100EBC00202EB001263689B00B2FBF9
:10452000F3F26423B2FBF3F202EBC20303EB0212D9
:10453000A1EB8201322202EB01116422B1FBF2F104
:1045400001F0F00100EBC00202EB001263689B0077
:10455000B2FBF3F26423B2FBF3F201EB021200EBC5
:10456000C00101EB001163689B00B1FBF3F100EBAC
:10457000C00303EB00136668B600B3FBF6F36426D2
:10458000B3FBF6F303EBC30606EB0313A1EB8301C6
:10459000322303EB01116423B1FBF3F101F00F01AE
:1045A00011442268916070BD00380140014691F8C5
:1045B000390021282CD18868B0F5805F0FD10A6AB4
:1045C0001088C0F308000B685860086918B9086AB9
:1045D000801C086209E0086A401C086205E00B6A5A
:1045E000581C086218780B685860C88C401E80B24E
:1045F000C88458B90868C06820F080000B68D8608B
:104600000868C06840F040000B68D8600020704720
:104610000220FCE72DE9F04104460D461746984676
:10462000069E21E0701CF8B12EB1FDF727FDA0EB2E
:104630000800B04218D92068C06820F4D070216802
:10464000C8602068406920F001002168486120208E
:1046500084F8390084F83A0000BF002084F838005C
:1046600000BF0320BDE8F081206800682840A84210
:1046700001D1012000E00020B842D3D00020F1E7B2
:10468000002004490978032901D1012000E000201D
:10469000704700007500002010B5194804784FF4E9
:1046A00000411848FDF7D4FC64F35F00144908701A
:1046B0000846007800F0C300032803D10120124906
:1046C00008701BE00E48007800F0C300C02803D13A
:1046D00002200D49087011E00948007800F0C3007D
:1046E00018B903200849087008E00548007800F070
:1046F000C300C32802D100200349087010BD000088
:1047000076000020001001407500002010B5FFF772
:1047100031FC0248FEF722FD10BD000068040020B5
:104720002DE9FE4F05462C46002600200190029000
:1047300003F02CFB00904FF064090622DA49204672
:10474000FBF764FE18B9D9A0FBF7E4FDAAE1062245
:10475000D549891D2046FBF759FE00BB01221146B1
:104760001046FCF7CFF90F2002F084FA012211461F
:104770000220FCF7C7F90F2002F07CFA0122114653
:104780000320FCF7BFF90F2002F074FA0122114652
:104790000420FCF7B7F90F2002F06CFA82E1062240
:1047A000C1490C312046FBF731FE00BB0022114607
:1047B0000120FCF7A7F90F2002F05CFA0022114655
:1047C0000220FCF79FF90F2002F054FA0022114654
:1047D0000320FCF797F90F2002F04CFA0022114653
:1047E0000420FCF78FF90F2002F044FA5AE1062268
:1047F000AD4912312046FBF709FE00BB0122002122
:104800001046FCF77FF90F2002F034FA0122002154
:104810000220FCF777F90F2002F02CFA0122002188
:104820000320FCF76FF90F2002F024FA0122002187
:104830000420FCF767F90F2002F01CFA32E106228F
:10484000994918312046FBF7E1FD00BB00221146D3
:104850000120FCF757F90F2002F00CFA0022114654
:104860000220FCF74FF90F2002F004FA0022114653
:104870000320FCF747F90F2002F0FCF90022114653
:104880000420FCF73FF90F2002F0F4F90AE10622B8
:1048900085491E312046FBF7B9FDF0B900200146DD
:1048A00000F014FF81F00041074603F027FE00F0FE
:1048B000FF0A51461E20FCF7A1F80020014600F037
:1048C00005FF81F00041074603F018FE00F0FF0AE3
:1048D00051461F20FCF792F8E4E006227249243189
:1048E0002046FBF793FD10B900F04CF9DAE0062200
:1048F0006D492A312046FBF789FD88B901A8FCF7EC
:1049000091FA032201A96C48FFF76EFBBDF908304C
:10491000BDF90620BDF9041068A0FBF7FBFCC1E05F
:104920000622614930312046FBF770FD60B901A8CD
:10493000FCF778FABDF90830BDF90620BDF904107E
:1049400065A0FBF7E7FCADE006225749363120466B
:10495000FBF75CFD40B966A0FBF7DCFC0120FCF72F
:104960008DF9FEF7F5FE9DE020781B2879D160785F
:104970000728FBD1A0780228F8D1E07801282EDBA7
:10498000E07804282BDC2079012801D0207930BB85
:1049900000215F48006803F029F8012806D05DA0D7
:1049A000FBF7B8FC01263046BDE8FE8F2179E078A0
:1049B0000122FCF7A7F84946684603F06BF9217914
:1049C000E0780022FCF79EF800231A46194650486A
:1049D000006802F0F3FD0020FCF724FA62E0E078C2
:1049E00005282CD12079012829D1002148480068C8
:1049F00002F0FCFF012805D046A0FBF78BFC012646
:104A00003046D1E74D48006800F07CF9032806D114
:104A100004204B4908704948006802F0CFFA02E0D0
:104A2000052002F027F9464800780028F8D1002335
:104A30001A4619463648006802F0C0FD32E0E078B8
:104A400005282CD1207950BB00213148006802F0A4
:104A5000CDFF012806D02FA0FBF75CFC01263046D5
:104A6000A2E71EE03548006800F04CF9032806D1A3
:104A7000FC20334908703148006802F09FFA02E0D8
:104A8000052002F0F7F82E4800780028F8D100231E
:104A90001A4619461E48006802F090FD02E0012601
:104AA00000E0012630467FE7CE8E0008434F4D20C0
:104AB0004F4B21200D0A000000F80308464C4153DB
:104AC000485F573A20783A256420793A2564207A5D
:104AD0003A2564200D0A00004143433A20783A25E4
:104AE0006420793A2564207A3A2564200D0A000072
:104AF00075706461746120697320726561647920E6
:104B0000746F20646F776E6C6F616421200D0A00F2
:104B1000600000204661696C3A675F784D6F746F82
:104B200072436F6E74726F6C53656D206973206988
:104B30006E2075736564210D0A0000003C000020A2
:104B40007000002000BFFEE702480068C0F30220AA
:104B5000704700000CED00E010B5002804DB0A07E8
:104B6000130E054A135406E00A07140E034A00F018
:104B70000F031B1FD45410BD00E400E018ED00E04B
:104B800000BF704770B5032236493748FFF71CFA5B
:104B90003448B0F9000004280BDB32480078444266
:104BA000E01704EB9070C0F387011E20FBF726FF8F
:104BB00016E02C48B0F9000010F1040F0CDC294875
:104BC000B0F900004442E01704EB9070C0F3870195
:104BD0001E20FBF713FF03E000211E20FBF70EFF52
:104BE0002048B0F9020004280BDB1E4880784442BC
:104BF000E01704EB9070C0F387011F20FBF7FEFE67
:104C000016E01848B0F9020010F1040F0CDC15484A
:104C1000B0F902004442E01704EB9070C0F3870142
:104C20001F20FBF7EBFE03E000211F20FBF7E6FE51
:104C30000020014600F04AFD81F00041054603F0E6
:104C40005DFCC4B221462020FBF7D8FE0548B0F930
:104C50000430B0F90220B0F9001004A0FBF75AFBB1
:104C600070BD00006A00002000F80308464C415364
:104C7000485F523A20783A256420793A2564207AB0
:104C80003A2564200D0A000010B500210120FBF731
:104C900011FF00210220FBF70DFF00221146012029
:104CA000FBF730FF002211460220FBF72BFF00220A
:104CB00011460320FBF726FF002211460420FBF7D4
:104CC00021FF10BD4FF0E021096921F004014FF0F0
:104CD000E0221161C21700EB5272C2F3C702074B08
:104CE0001A701946097801EB4102C2EBC1114FF667
:104CF000FF7202EAC101024A118070477800002069
:104D00007A0000202DE9F04707463E4656B900BF1D
:104D1000502080F31188BFF34F8FBFF36F8F00BF18
:104D200000BFFEE71B480068864201D100242DE049
:104D300001F0EEFC75691848D0F800801748D0F8EB
:104D4000009001F00FFD454501D04D4501D10224F1
:104D50001CE01348854212D1B06A70B903240020C8
:104D600007E006F16C01095C012901D1022402E08F
:104D7000401C0128F5DB00BF08E0022406E00948DA
:104D8000854200D00DB9042400E001242046BDE88E
:104D9000F0870000080100200C0100201001002015
:104DA000F8550020E455002000BF054A126802F0C3
:104DB0004002002AF9D0C2B2014B1B1D1A60704795
:104DC000003801402DE9F04104460D462169206874
:104DD00003F0D8FD60606169606803F0D3FD0646AA
:104DE0003146606803F030FEE0602846A16803F0B9
:104DF000EDFF0746E16803F01DFF0646A16803F0DA
:104E0000C1FDA0604FF07E50E16803F0DFFF064671
:104E1000616803F00FFF2060A068BDE8F081FDF736
:104E20003FF9FFF7A5F9FEF797FEFEF77BFEFEF7C9
:104E300029FEFFF739F8FEF713FFFEF751FFFEF7E3
:104E40008FFFFEF7CDFFFFF70BF80820FFF73AFFC3
:104E500001E001F047FDFCE72DE9F04105460E4673
:104E60002048076820480068001D00F079FC681C95
:104E7000D8B9D6B11D4948681B49096888601A49E4
:104E800082680968CA6018490968091D826851600A
:104E900015490968091D8160144A134909684A6166
:104EA00011460968491C11601AE07C190E48006817
:104EB0004460BC4207D20C480168091D0C480068D8
:104EC00000F0CAFD0CE008480168091D09480068A7
:104ED00000F0C2FD08480068844201D20648046020
:104EE000BDE8F0811C01002008010020F8550020D9
:104EF000100100200C0100203801002010B50446EC
:104F000001F006FC30480068401C2F4908602F481B
:104F1000006840B92D4804600846006801280DD19A
:104F200000F0D4F90AE02A48006838B92748006838
:104F3000C06AE16A884201D82448046025480068B4
:104F4000401C244908600846006860652249E06A00
:104F50000968884202D92049E06A0860E16A01EBE9
:104F600081011E4A02EB81014868A0608268E2600C
:104F7000211D826851608160E16A01EB8101174A5D
:104F800002EB81026261E16A01EB8101134A52F88E
:104F90002110491CE26A02EB8202104B43F82210F6
:104FA00001F0E0FB0A48006868B108480068C06A80
:104FB000E16A884207D24FF0805009490860BFF388
:104FC0004F8FBFF36F8F10BD180100200801002024
:104FD0002401002034010020200100200855002079
:104FE00004ED00E010B516E001F092FB0C48C0683B
:104FF000C468201D00F0B4FB0A480068401E09493F
:10500000086009480068401E0749086001F0AAFBD3
:10501000204600F05FF8044800680028E4D110BD85
:10502000E4550020180100201401002070B504464A
:105030000D46206C70B1216CE0680144E160D4E958
:105040000210884201D32168E1602846226CE168A1
:10505000FBF708FA70BD2DE9F04104460F461546EE
:105060004FF00008A66B206C48B9206800282CD1AE
:10507000A06802F06DFF80460020A06025E07DB9A9
:105080003946226C6068FBF7EDF9216C60680844D2
:105090006060D4E90101884217D32068606014E0A1
:1050A0003946226CE068FBF7DDF9216CE068411AB3
:1050B000E1602168E068884203D2216CA068411A4F
:1050C000E160022D01D106B1761E701CA06340463E
:1050D000BDE8F08110B50446206B01F061FB20466D
:1050E00001F05EFB10BD01464A6A22B10A6B1268EC
:1050F000C2F1080000E000207047000030B54FF416
:105100008043174800F007042CB1C01D20F00700B1
:10511000134C041B1B1B0246124C22600024114D31
:105120006C60D018083820F007000F4C2060002475
:105130000D4D2D686C600C4D2D682C601146441A85
:105140004C60094C24680C60084D4C682C60084D7C
:105150004C682C604FF00044064D2C6030BD0000C0
:1051600008150020DC000020E4000020EC000020F6
:10517000E8000020F800002000BFFFF733FF0648DA
:1051800000680128F9D94FF0805004490860BFF346
:105190004F8FBFF36F8FF0E70855002004ED00E05C
:1051A00010B5044654B10020A06020600021E160E9
:1051B00000231A461946204602F000FA10BD2DE9D8
:1051C000F04106460D4617469846069C0DB92460E8
:1051D00000E02760E66325640121204602F080F9A3
:1051E00084F84C80BDE8F0812DE9F05F82460F46DF
:1051F00090469B460A9E0C9C4FEA8801A522206B94
:10520000FBF775F9A8F10100216B01EB800929F08A
:10521000070909F0070008B9012000E0002050B993
:1052200000BF502080F31188BFF34F8FBFF36F8F03
:1052300000BF00BFFEE787B1002507E0795D04F1FC
:1052400034004155785D00B902E06D1C202DF5D386
:1052500000BF00215320015502E0002084F83400F3
:10526000082E01D2012000E0002050B900BF5020DC
:1052700080F31188BFF34F8FBFF36F8F00BF00BF64
:10528000FEE7082E00D30726E662E66500202066CA
:10529000201D00F0DEFB04F1180000F0DAFB2461B1
:1052A000C6F10800A061646200206066A06684F810
:1052B0006C005A465146484600F0F6F920600B98BB
:1052C00008B10B980460BDE8F09F000010B5002401
:1052D00007E004EB84010F4A02EB810000F0ACFB15
:1052E000641C082CF5D30C4800F0A6FB0B4800F01A
:1052F000A3FB0B4800F0A0FB0A4800F09DFB0A4806
:1053000000F09AFB0448094908600448084908600D
:1053100010BD000008550020A8550020BC550020F5
:10532000D0550020E4550020F85500200C01002045
:105330001001002010B50146164800E0006803681F
:105340008B42FBD30246436813448B4204D143682B
:105350004C682344436001460A464B681344046882
:10536000A34211D10C4C03682468A34208D04B68B7
:105370000468646823444B6003681B680B6005E0A5
:10538000054B1B680B6001E003680B60884200D08E
:10539000016010BDDC000020E400002070B505466F
:1053A00001F0B6F9A86B08B9012400E0002401F06F
:1053B000D9F9204670BD70B5054601F0A9F9A86B72
:1053C000E96B884201D1012400E0002401F0CAF910
:1053D000204670BD09480068006808B9012000E057
:1053E000002020B14FF0FF300549086005E0034878
:1053F0000068C06800680249086070470C0100201E
:10540000380100200E480068401C08B9012000E067
:10541000002050B900BF502080F31188BFF34F8F98
:10542000BFF36F8F00BF00BFFEE700BF502080F3C7
:105430001188BFF34F8FBFF36F8F00BF00BFFEE730
:10544000FC00002010B502460020114652B900BFF2
:10545000502383F31188BFF34F8FBFF36F8F00BFCB
:1054600000BFFEE70B4C4B69A34201D1012300E0D2
:10547000002373B1084C8B6AA34201D1012300E0E1
:10548000002333B98B6A0BB9012300E0002303B179
:10549000012010BDF8550020D055002070B50446FD
:1054A00001F036F994F9455010E0606A08B901201E
:1054B00000E0002038B904F1240002F021FE18B108
:1054C00001F0D8FC00E003E0681E45B2002DECDCE2
:1054D00000BFFF2084F8450001F044F901F018F9FD
:1054E00094F9445010E0206908B9012000E0002040
:1054F00048B904F1100002F003FE08B101F0BAFC53
:10550000681E45B200E001E0002DECDC00BFFF208A
:1055100084F8440001F026F970BD00002DE9F04147
:1055200004464FF0000801F063FE5148006808B9D6
:10553000FFF7E4FD4F480068204000287ED13CB3CF
:1055400004F10800A04223D9083404F0070000B396
:1055500004F00700C0F108002044A04216D904F06E
:105560000700C0F10800044404F0070008B9012056
:1055700000E0002068B900BF502080F31188BFF31D
:105580004F8FBFF36F8F00BF00BFFEE7002400E026
:105590000024002C54D038480068844250D8374E3C
:1055A0003046056801E02E462D686868A04202D2A8
:1055B00028680028F7D12E480068854240D030681E
:1055C00000F10808286830606868001B102819D9A5
:1055D0002F1907F0070008B9012000E0002050B99A
:1055E00000BF502080F31188BFF34F8FBFF36F8F40
:1055F00000BF00BFFEE76868001B78606C6038463B
:10560000FFF798FE1C4968680968081A1A4908607B
:10561000084600681A490968884203D2164800689B
:1056200017490860134968680968084368600020E2
:10563000286014480068401C124900E000E008603F
:1056400002F0EEFD08F0070008B9012000E000209C
:1056500050B900BF502080F31188BFF34F8FBFF3C4
:105660006F8F00BF00BFFEE74046BDE8F08100003D
:10567000E4000020F8000020E8000020DC0000200A
:10568000EC000020F00000200648006830B1054919
:10569000096801F16000096E491C01600148006859
:1056A0007047000008010020001F4FF08073036066
:1056B000001F21F001030360001F034B0360143837
:1056C0000260203870470000055400082DE9F04DB5
:1056D00007460E4603F006F804460D463A463346A2
:1056E00003F05AF8DFF86CA0DFF86CB01B4B0746EC
:1056F000884616F0004F4FF000020AD002F02CFF4F
:105700000AD900225B463846414602F0B5FF1BD25B
:1057100012E002F021FF08D200225346204629461B
:1057200003F046F804460D460EE000225B4638467C
:10573000414602F0A1FF07D80022534620462946E1
:1057400002F028FE04460D463146204665F31E0150
:10575000BDE8F08D0000F03F0000E03F0000E0BF3A
:1057600001460A69D1E901309860D1E90103586026
:105770005068884201D18868506000200861106834
:10578000401E10601068704770B5044654B900BFE1
:10579000502080F31188BFF34F8FBFF36F8F00BF8E
:1057A00000BFFEE700F0B4FFA56B00F0DBFF28466A
:1057B00070BD00001CB5002000900190FF24002265
:1057C0000621012001F059FE12490860FBF77AF822
:1057D0000446002001F0A0FC1AE0052001F04AFA7E
:1057E00034B90A2301AA911E6846FBF72BF908E099
:1057F00009A0FAF78FFD0A2001F03CFAFBF762F8E6
:1058000004460123642269460248006801F0D6FE7E
:10581000E3E700005C0000204144584C333435205D
:10582000696E6974206661696C2E2E2E0D0A000067
:105830001CB500240025002000900190B0E0052058
:1058400001F018FAFDF798FFFDF7E8FF0446AC42B7
:10585000F4D025465348007800287BD10B2C21D169
:1058600051480078022804D04F4890F90000801C6D
:1058700018B903204C49087092E04B48007868B989
:105880004A480068FFF73EFA0328D7D1012046496D
:1058900008704648006801F091FB81E044A0FAF7E7
:1058A00039FD7DE004F10B0008BB3F480078022879
:1058B00004D03D4890F90000801C18B9FD203A49F9
:1058C00008706DE03848007868B938480068FFF71C
:1058D00019FA032864D1FF2033490870334800685F
:1058E00001F06CFB5CE032A0FAF714FD58E0A01C5C
:1058F000002855D10146FFF7E9FE81F00041074637
:1059000002F0FCFDC6B231461E20FBF777F80020FE
:105910000146FFF7DBFE81F00041074602F0EEFD95
:10592000C6B231461F20FBF769F82CA0FAF7F2FC4B
:10593000322001F09FF96846FBF774FA03226946AA
:105940002A48FEF751FBBDF90430BDF90220BDF92C
:10595000001000E00BE026A0FAF7DCFC322001F09A
:1059600089F9FFF70FF9322001F084F918E00022DD
:1059700011460120FBF7C6F8002211460220FBF772
:10598000C1F8002211460320FBF7BCF800221146A3
:105990000420FBF7B7F8002003490870014908709C
:1059A0004DE7000071000020700000203C00002046
:1059B000447572696E67206F7065726174696F6E8D
:1059C000206F66206F746865722070726F636573F4
:1059D000736573202E2E2E0D0A000000636C656126
:1059E00072203364202E2E2E0D0A000000F80308CA
:1059F000464C4153485F573A20783A256420793A1B
:105A00002564207A3A2564200D0A000008B502F0CA
:105A1000BDF900904FF47A740DE02146684602F01B
:105A200039F90120FBF72AF92146684602F032F9DC
:105A30000020FBF723F9F0E700F1080141604FF087
:105A4000FF31816000F10801C16001610021016046
:105A5000704700210161704710B502460B685C1C5D
:105A60000CB9106907E002F1080000E040684468E2
:105A700024689C42FAD944684C604C68A1608860F4
:105A800041600A611468641C146010BD42684A6079
:105A900093688B60936859609160086103685B1C30
:105AA0000360704788B000BFFDA000680790002029
:105AB0000590069003900490002600250190029026
:105AC00001F02AFBD8E3052001F0D4F8F54800786E
:105AD000052808D0F34890F90000401D18B1F1489E
