:020000040800F2
:1000000090060020010100083D1B0008CB180008E5
:10001000AD1A00080F02000881200008000000004F
:10002000000000000000000000000000411B00086C
:1000300029090008000000003F1B0008011C0008FF
:100040001B0100081B0100081B0100081B01000820
:100050001B0100081B0100081B0100081B01000810
:100060001B0100081B0100081B0100081B01000800
:100070001B0100081B0100081B0100081B010008F0
:100080001B0100081B0100081B0100081B010008E0
:100090001B0100081B0100081B0100081B010008D0
:1000A0001B0100089D1C00081B0100081B01000823
:1000B0001B0100081B0100081B0100081B010008B0
:1000C0001B0100081B0100081B0100081B010008A0
:1000D0001B0100081B0100081B0100081B01000890
:1000E0001B0100081B0100081B010008DFF80CD0F1
:1000F00000F06CF800480047A12500089006002099
:100100000648804706480047FEE7FEE7FEE7FEE7B1
:10011000FEE7FEE7FEE7FEE7FEE7FEE7551C000808
:10012000ED000008202A04DB203A21FA02F0002129
:10013000704721FA02F3D040C2F1200291400843F7
:1001400019467047D2B201E000F8012B491EFBD2DC
:1001500070470022F6E710B513460A4604461946D2
:10016000FFF7F0FF204610BD2DE9F05F05460020A7
:1001700092469B4688460646814640241BE0284618
:10018000414647462246FFF7CDFF53465A46C01A1E
:10019000914110D311461846224600F029F82D1A35
:1001A00067EB01084F4622460120002100F020F8AD
:1001B00017EB00094E41201EA4F10104DFDC484684
:1001C00031462A464346BDE8F09F0000064C074DE5
:1001D00006E0E06840F0010394E807009847103417
:1001E000AC42F6D3FFF786FF3828000858280008ED
:1001F000202A04DB203A00FA02F1002070479140E7
:10020000C2F1200320FA03F3194390407047FEE740
:10021000154910B5B1FBF0F0032319464FF6F07203
:1002200002E0C008491EC9B2904201D90029F8D1A4
:10023000904201D9FE2010BD4042020A0B484024E2
:1002400043F0C0030470A12444709C248470C370E4
:1002500041F080010171427100218171C171084634
:1002600000F074F9C0B210BD00F0595B1800002016
:1002700010B500F0FDF8064C0028207803D028B90E
:100280000120207002E008B100F020F9207810BDB4
:10029000800200202DE9F04763480024C2B00078B6
:1002A00002287DD1614D0026DFF8848128784FF047
:1002B0000109002869D04FF480716846FFF749FFB3
:1002C00098F800205B4940A842B15B4A135D035592
:1002D000641CE4B2082CF9D30E7047E00A783AB1F6
:1002E000564F012A0CD0022A11D0032A17D03DE024
:1002F00053490A5D0255641CE4B2082CF9D335E079
:10030000395D0155641CE4B2082CF9D32EE04D4947
:100310000A5D0255641CE4B2082CF9D326E04A4A6F
:100320004A4B12781B78022A02D0032A09D015E022
:10033000A3B947490A5D0255641CE4B2082CF9D3FD
:1003400014E0444ADFF810C1012B12789CF800C079
:1003500042EA0C02DFF804C123D09BB381F800907D
:10036000395D0155641CE4B2082CF9D3014608201C
:1003700000F0CAFA00F0A2FA0121687900F00AFA46
:100380004FF4967000F0E6FB2E700121684601F0F4
:100390004FFE10F0FF0443D0002031496A4621E0AF
:1003A0003EE03AB12F490A5D0255641CE4B2082CC4
:1003B000F9D3DBE71CF804100155641CE4B2082CE7
:1003C000F8D3D3E7FFE7002AD0D100BF1CF8041010
:1003D0000155641CE4B2082CF8D3C7E7135C0B5436
:1003E000401CC0B2A042F9D300278A4607E000BFF4
:1003F0001AF807101CA001F045FE7F1CFFB2A742AF
:10040000F6D31A48047098F8001029B188F80060F3
:1004100041F2883000F09EFB01F04AFB85F8009025
:1004200042B0BDE8F08700008002002010000020EC
:100430006900002005000020610000203900002034
:1004400031000020410000202D0000202F0000205E
:100450005900002022000020200000204900002038
:10046000C000002051000020256300000E00002085
:1004700010B520210A4800F06FFC08B900F012F80E
:10048000162000F00BF9052002F078F800F02AF8A9
:10049000152803D0182801D0002010BD012010BD60
:1004A0000010014000B5222000F0F8F85DF804EBE0
:1004B00000F018B800B50A2000F0F0F8072000F0AE
:1004C0001FF95DF804EB00F00DB8000010B58621AF
:1004D0000348FFF73EFE02490820C87010BD000027
:1004E00080020020164A10B5D06820F01000D060BD
:1004F0001449086820F001000860086820F0020034
:100500000860114B4FF0883018600A2002F036F86E
:100510000D4808300068C4B20A2002F02FF8D068F5
:1005200040F01000D060086840F0010008600868E2
:1005300040F0020008604FF033301860204610BDD4
:10054000001001400C0C0140000801402DE9F05F53
:10055000384C06468020A0704FF0C00A04F108090C
:100560008B4684F801A00027B9F8065049460820B8
:1005700000F0CAF900F0A2F90D21002000F00AF9FC
:10058000142850D1022001F0F9FF99F8000000066C
:1005900013D42DE000F07EF90921002000F0FAF8D4
:1005A000142840D1304600F039F939188FB2E1787B
:1005B00088421FD30644281A85B2002DEAD119E0DB
:1005C000E078854200D82846C0B28046314600F027
:1005D0009BF900F073F90121002000F0DBF81428EA
:1005E00021D107EB080087B2A5EB0800464485B28D
:1005F000002DE5D184F801A084F802A099F800004C
:10060000000608D50B490020083100F07DF900F004
:1006100055F9012102E000F03DF90921002000F028
:10062000B9F8142802D00020BDE8F09FABF80070A4
:10063000FAE700001000002010B504460B2000F07F
:100640002DF8252000F05CF8204600F059F8BDE8B0
:100650001040022001F092BF70B50546452000F021
:100660001DF8284600F04CF800F03CF90446142828
:1006700005D1132000F012F8284600F041F820467A
:1006800070BD00B50B2000F009F8172000F038F815
:10069000D8205DF804EB00F033B8000010B5044634
:1006A0000A2001F06BFF134AD06820F01000D060E0
:1006B0001149086840F001000860104B186800F408
:1006C0007F401860186820431860086820F0040014
:1006D00008600A2001F052FFD06840F01000D0609E
:1006E000086840F004000860BDE81040C82001F030
:1006F00045BF0000001001400C0C01400C080140F7
:1007000010B504460A2001F039FF154AD06820F0E0
:100710001000D0601349086820F001000860124BF7
:10072000186800F47F401860186820431860086853
:1007300020F0040008600A2001F020FFD06840F09B
:100740001000D060086840F004000860086840F0BD
:1007500001000860BDE81040C82001F00FBF000094
:10076000001001400C0C01400C08014010B504467B
:100770004620FFF793FF2046FFF7C2FF00F0B2F8D4
:100780000446142802D1024800F048F8204610BD63
:100790000002002070B505460C464F20FFF77EFF93
:1007A00044EA0510C0B2FFF7ABFFBDE8704000F0AF
:1007B00099B8000070B5184B4179197100218478FF
:1007C00026E0425C072A20D142185578052D1CD11D
:1007D00095782E0608D5D678022E0FD105F00F0594
:1007E0009D7195782D0609D4D578022D0DD1957877
:1007F00005F00F055D7195782D0606D5D578032D8A
:1008000003D1927802F00F02DA71425C1144C9B24E
:100810008C42D6D870BD00001000002070B505468F
:100820002820FFF73BFFFFF75DFE0646002405E0AA
:10083000FFF758FE641C05F8010BE4B2B442F7D18F
:10084000304670BD00B50120FFF728FF5DF804EBCE
:10085000FFF748BE10B504464920FFF71FFF2046AA
:10086000FFF74EFFBDE8104000F03CB810B504465D
:100870001520FFF713FF2046FFF742FF192001F074
:100880007DFEFFF72FFE512801D0002010BD012072
:1008900010BD000010B51C20FFF700FF064C60786B
:1008A000FFF72EFF607880F040006070BDE81040D8
:1008B000022001F063BE00001000002010B51D20D2
:1008C000FFF7ECFE064CA078FFF71AFFA07880F047
:1008D0004000A070BDE81040022001F04FBE0000B3
:1008E0001000002010B5074C2021204600F034FAFB
:1008F0000028F9D12220FFF7D1FEBDE81040FFF714
:10090000F1BD00000010014030B505460C462B201B
:10091000FFF7C4FE284601E014F8010BFFF7F0FED4
:100920006D1EEDB2F8D230BD704700000748017867
:10093000002907D00648074A0129007903D0022977
:1009400000D1107070475070704700000500002003
:10095000C00000202D0000200C48C178807801EBF9
:10096000002080B2A0F52C5124390BD0A0F52C51D9
:10097000263907D006480178022904D0032901D17D
:100980000021817070470121FBE70000C0000020BA
:100990002D00002070B518481A49184E0578184CDB
:1009A0004B780A78012D02D0012B0BD00DE00025E9
:1009B00013B1012B02D008E0022300E003234B70A7
:1009C000057002E0012A0FD072B1D8B2104312D1E3
:1009D00000220421304600F0CBF9012220212046DC
:1009E000BDE8704000F0C4B90421304600F0C0F901
:1009F00001224021F3E770BD0400002000140140F3
:100A0000000C01402000002072B6FEE72DE9F04105
:100A1000FFF72EFC0025154C012601280BD101F013
:100A200095FAA07108B112A000E015A001F02AFB10
:100A30001848A5710670184F3878012803D13D7009
:100A4000FFF728FCE571E079401CC0B2E071042892
:100A50000AD9E5716079401CC0B26071032800D9E1
:100A600066710E483E700670BDE8F08100000020FF
:100A70005553425F4661696C21200D0A0000000059
:100A80005553425F5375636365737366756C2120BC
:100A90000D0A000069000020300000201000002036
:100AA0002DE9F041264E274A274F30780025274C64
:100AB00002280FD003282FD10421104600F051F94D
:100AC000A089502834D2401C80B2A081012828D9A6
:100AD000012227E00421104600F043F960891C49F7
:100AE000A0280ED2401C80B26081022804D31928AD
:100AF00004D10878012801D0002200E00122402121
:100B000011E00878012809D03570257101224021B3
:100B1000384600F02DF96581BDE8F0810120307084
:100B2000F3E7002220213846BDE8F04100F020B96B
:100B3000357001222021384600F01AF9A581EBE733
:100B40002100002000140140000C014000000020A2
:100B50002000002070B5044600F010F90546601C26
:100B600002D004480078044400F008F9401BA04279
:100B7000FAD370BD6C0000202DE9F84FDFF8B89172
:100B8000002409F1040A0AF1040B23460F270BF194
:100B9000040EC9E00125A5402A40AA427DD1674E36
:100BA000D1F804C0ACEB0608B44532D014DCBCF17B
:100BB000030F3AD009DCBCF1000F2AD0BCF1010FC1
:100BC0001CD0BCF1020F31D11DE0BCF1110F17D0C8
:100BD000BCF1120F2AD119E0B8F5881F19D006DC34
:100BE000B8F5803F15D0B8F5801F1FD111E0B8F5DA
:100BF000001F0ED0B8F5041F18D10AE0CB6815E02D
:100C0000CB681B1D12E0CB6808330FE0CB680C33B8
:100C10000CE08B682BB1012B4FF0080303D045612A
:100C200004E0042302E0056100E00023FF2A01D86C
:100C3000064601E000F104064FEA840501D9A5F15A
:100C40002005D6F8008007FA05FC28EA0C0803FA0C
:100C500005F548EA0508C6F800804D68ED0062D544
:100C6000374DAE6946F00106AE61AD6924F003066A
:100C700005F001050095334D06EB050CDCF8085036
:100C8000A607360F07FA06F825EA0805DFF8B88048
:100C9000404503D14FF0000817E044E0DFF8AC8096
:100CA000404502D14FF001080FE0DFF8A480404535
:100CB00002D14FF0020808E0DFF89880404502D1E9
:100CC0004FF0030801E04FF0040808FA06F848EA7C
:100CD0000508CCF808804D68D9F80060ED034D4652
:100CE00001D5164300E096432E604D68DAF80060A7
:100CF000AD03554601D5164300E096432E604D687E
:100D0000DBF80060ED025D4601D5164300E0964336
:100D10002E604D68DEF80060AD02754601D51643C1
:100D200000E096432E60641C0D682A46E5407FF47F
:100D300031AFBDE8F88F0000000401400000111041
:100D4000001002400000014000080140000C01407A
:100D500000100140001401408068084000D00120CC
:100D60007047C2680A4201D0416170470161704713
:100D70000AB1016170470904FBE70000014880687F
:100D8000704700006C00002002488168027811441E
:100D9000816070476C000020074810B5016841F081
:100DA00010010160032000F075F80F2000F006F834
:100DB00000F024F8002010BD0020024070B50D4D59
:100DC00004464FF47A712878B1FBF0F00A490968BB
:100DD000B1FBF0F000F0ECFA48B9102C07D2002279
:100DE0002146501E00F036F800206C6070BD0120D6
:100DF00070BD00006C000020780000200C4808B591
:100E0000816941F001018161816901F00101009175
:100E1000C16941F08051C161C06900F0805000900B
:100E20000448416821F0E06141F00071416008BD73
:100E30000010024000000140002809DB00F01F0202
:100E4000012191404009800000F1E020C0F800112C
:100E500070470000F0B40E4B1B680C46C3F302232E
:100E6000C3F10705042D00D90425191D072901D256
:100E7000002300E0DB1E012606FA05F1491E214091
:100E800099409E40761E16403143F0BC01F00AB9ED
:100E90000CED00E0064900F0070208684FF6FF037A
:100EA000184040EA0220034A1043086070470000DF
:100EB0000CED00E00000FA052DE9F0470F460500B3
:100EC00061D0434E306800F00700B84209D2306864
:100ED00020F0070038433060306800F00700B84267
:100EE00051D128683B4C810712D5400703D5606873
:100EF00040F4E06060602878000703D5606840F443
:100F0000605060606068A96820F0F000084360608D
:100F10002878C00728D06868012810D021680228E6
:100F200010D0890700292EDA616821F003010143FE
:100F30006160FFF723FF804641F288390DE02168A8
:100F40008903EFE78901EDE7FFF718FFA0EB080140
:100F5000494502D90320BDE8F0876068696800F060
:100F60000C00B0EB810FEFD1306800F00700B84201
:100F70000BD9306820F0070038433060306800F04B
:100F80000700B84201D00120E5E72878400705D5E1
:100F90006068E96820F4E060084360602878000732
:100FA00006D56068296920F4605040EAC10060609D
:100FB00000F038F86168084AC1F30311515CC84079
:100FC0000649086006480068FFF7F8FE0020C2E7FF
:100FD0000020024000100240202800087800002075
:100FE000700000200448054900684968044AC1F3BC
:100FF0000221515CC8407047780000200010024078
:10100000302800080448054900684968044AC1F3CB
:10101000C221515CC8407047780000200010024097
:101020003028000812A185B00FC98DE80F0014A068
:10103000144A006804905168134801F00C03042B13
:1010400010D0082B0ED1C1F38343C9031DF8030050
:101050000AD5516804AAC1F34041515C0A4A504381
:10106000B0FBF1F005B0704708494843FAE70000CB
:1010700002030405060708090A0B0C0D0E0F1010D9
:10108000010200000010024000127A0000093D0039
:101090002DE9F84F040070D02078C04DC00749D02A
:1010A0006868C0F38100012807D06868C0F3810038
:1010B000022809D16868C00306D52868800339D59D
:1010C00060680028E7D035E06068B0F5803F0BD05D
:1010D00010B1B0F5A02F11D0286820F4803028601E
:1010E000286820F4802002E0286840F480302860DE
:1010F000606890B1FFF742FE06460AE0286840F4B7
:1011000080202860F0E700BFFFF738FE801B6428CE
:1011100073D828688003F7D50CE0FFF72FFE06464A
:1011200005E000BFFFF72AFE801B6428F0D828687E
:101130008003F7D420789A4E80074FF001094FF0D2
:10114000000839D5686810F00C0F07D06868C0F344
:101150008100022809D16868C00306D42868800786
:1011600014D52069012808D110E02069B0B1C6F873
:101170000090FFF703FE074605E00AE1FFF7FEFDDA
:10118000C01B0228C4D828688007F7D52868616981
:1011900020F0F80040EAC10028600DE0C6F80080A9
:1011A000FFF7ECFD074604E0FFF7E8FDC01B02284F
:1011B00023D828688007F7D4207800072CD57948F1
:1011C000A169D9B1C0F80090FFF7D8FD074604E047
:1011D000FFF7D4FDC01B02280FD8686A8007F7D537
:1011E00071484FF4FA510068B0FBF1F0009000BF75
:1011F0000098411E0091FAD20EE080E0C0F8008015
:10120000FFF7BCFD074604E0FFF7B8FDC01B02284E
:1012100075D8686A8007F7D42078400760D5E869F8
:101220000027C00008D4E86940F08050E861E86910
:10123000012700F0805000905C480168C90513D474
:101240000168834641F480710160FFF797FD824693
:1012500006E000BFFFF792FDA0EB0A0064284ED81D
:10126000DBF80000C005F5D5E06801280AD008B118
:10127000052813D0286A20F001002862286A20F08F
:10128000040002E0286A40F001002862E06841F2B0
:10129000883B98B1FFF772FD82460BE0286A40F068
:1012A00004002862EEE700BFFFF768FDA0EB0A012B
:1012B00059455AD8286A8007F6D50CE0FFF75EFD3D
:1012C000824605E0FFF75AFDA0EB0A0159454CD8CC
:1012D000286A8007F6D41FB1E86920F08050E861E1
:1012E000E06988B36968C1F38101022944D002280A
:1012F000C6F8608004D0FFF741FD044638E034E0D2
:10130000FFF73CFD074604E0FFF738FDC01B02284D
:101310002BD828688001F7D4206AB0F5803F05D12A
:101320006868A16820F4003008436860D4E90801C7
:101330000843696821F4741108436860C6F8609036
:10134000FFF71CFD044606E025E000BFFFF716FD91
:10135000001B022809D828688001F7D51BE000BFD0
:10136000FFF70CFD001B022802D90320BDE8F88F0F
:1013700028688001F4D40EE00128F7D06868226A5A
:1013800000F48031914204D1616A00F47010884207
:1013900001D00120EAE70020E8E700000010024049
:1013A0000000424280044242780000200070004069
:1013B00010B5401EB0F1807F01D3012010BD4FF069
:1013C000E02460610F21601700F06CFE0020A06136
:1013D00007202061002010BD7047704770B590F85D
:1013E0003C20012A19D0012400F83C4F022242700F
:1013F00050F83C3C5A689D6822F070060A684968BB
:10140000324325F0800529435A6050F83C2C916006
:10141000447000210170084670BD022070BD10B5F7
:10142000040003D094F83D0010B107E0012010BD86
:10143000002084F83C00204600F00CF8022084F8DC
:101440003D00211D206800F02FFC012084F83D00A4
:10145000002010BD08B500680B49884212D10B4826
:10146000816941F4006181618069002200F40060BB
:10147000009011461920FFF7EDFCBDE80840192047
:10148000FFF7DABC08BD0000002C0140001002404C
:101490000168CA6842F00102CA600068816801F010
:1014A0000701062903D0016841F001010160002015
:1014B000704770B5044690F83C00012817D001250C
:1014C00084F83C50022084F83D002068826822F0B5
:1014D000770222F47F4282600868502830D00DDC09
:1014E00020284DD005DC98B310283BD148E00220DD
:1014F00070BD302844D0402834D139E0602828D04D
:10150000702806D0B0F5805F2CD0B0F5005F29D1EF
:101510000AE0CB68D1E90121206800F0FBFB2068DC
:10152000816841F0770109E0CB68D1E901212068A9
:1015300000F0F0FB2068816841F48041816011E097
:10154000CA684968206800F0F7FB5021206807E06E
:1015500016E0CA684968206800F0FFFB6021206837
:1015600000F0E2FB84F83D50002084F83C0070BDA0
:10157000CA684968206800F0DFFB40212068EFE777
:10158000226801461046EBE7704770B504460068D4
:1015900001694FF00005C943890715D4C168C943E3
:1015A000890711D4E91E0161012020772068806934
:1015B0008007204602D0FFF7E7FF04E000F098F82C
:1015C000204600F096F8257720680169C94349074D
:1015D00017D4C168C943490713D46FF004010161EE
:1015E000022020772068806910F4407F204602D0D6
:1015F000FFF7CAFF04E000F07BF8204600F079F81E
:10160000257720680169C943090716D4C168C94311
:10161000090712D46FF008010161042020772068C7
:10162000C0698007204602D0FFF7AEFF04E000F05B
:101630005FF8204600F05DF8257720680169C9430E
:10164000C90617D4C168C943C90613D46FF0100185
:101650000161082020772068C06910F4407F20468F
:1016600002D0FFF791FF04E000F042F8204600F0BE
:1016700040F8257720680169C943C90708D1C168C6
:10168000C943C90704D1891E0161204600F032F820
:1016900020680169C943090609D4C168C94309061C
:1016A00005D46FF0800101612046FFF795FE2068A8
:1016B0000169C943490609D4C168C943490605D42B
:1016C0006FF040010161204600F038F820680169A0
:1016D000C94389060BD4C168C943890607D46FF092
:1016E000200101612046BDE87040FFF776BE70BD65
:1016F00070477047104810B501890A22491C89B209
:10170000B1FBF2F302FB13130181012203B9027052
:101710002823B1FBF3F403FB141303B942706423D1
:10172000B1FBF3F403FB141303B98270C82902D38D
:1017300000210181C27010BD00000020704770B50B
:10174000040004D094F83900002510B106E001200F
:1017500070BD84F83850204600F022F8242084F828
:1017600039002068C16821F40051C160204600F0B2
:1017700039FB2068016921F49041016120684169C9
:1017800021F02A0141612068C16841F40051C16023
:10179000E563202084F8390084F83A00002070BD09
:1017A00030B585B00024009401940294039400683D
:1017B0001449884224D11448816941F480418161EF
:1017C000816901F480410491816941F004018161E2
:1017D00080690E4D00F0040004904FF400700090FA
:1017E000022001900320039069462846FFF7C4F9C0
:1017F0002815CDE90004694628460294FFF7BCF994
:1018000005B030BD00380140001002400008014022
:101810002DE9F843044690F839001F4616460D4658
:10182000202850D1A5B19EB194F8380001284AD0A3
:10183000012084F838004FF00008C4F83C802120D3
:1018400084F83900FFF79AFAA6848146E68426E0F8
:101850000120BDE8F883E08C401EE084A0684B4680
:10186000B0F5805F4FF000024FF0800120460097F6
:1018700003D000F013FBE8B90DE000F00FFBC8B98E
:1018800028882168C0F308004860206908B16D1CF1
:1018900005E0AD1C03E0216815F8010B4860E08C01
:1018A0000028D8D14B46002240212046009700F066
:1018B000F5FA08B10320CCE7202084F8390084F839
:1018C00038800020C5E70220C3E7FEE72DE9F04796
:1018D00086B00024484800940194029403948169DE
:1018E00041F004018161816901F004010491816981
:1018F00041F010018161816901F010010491816959
:1019000041F008018161816901F008010491816958
:1019100041F0200181618069DFF8E08000F0200063
:101920000490012248F2FF014046FFF721FA344FAC
:10193000012210213846FFF71BFADFF8C8A0012268
:1019400040F207415046FFF713FA00224FF4E051EE
:101950003846FFF70DFADFF8B09000220421484620
:10196000FFF706FA012260215046FFF701FAFF2037
:1019700001250326CDE90005CDE90246694640462A
:10198000FFF7FAF841F61040CDE90005CDE902462F
:1019900069463846FFF7F0F82020CDE90004694693
:1019A00038460294FFF7E8F840F26740CDE90005B9
:1019B000CDE9024669465046FFF7DEF8E803CDE977
:1019C00000050220CDE9024069464046FFF7D4F801
:1019D0000420CDE90005CDE9024669464846FFF7F7
:1019E000CBF89820CDE90004694650460294FFF7F1
:1019F000C3F806B0BDE8F0870010024000080140BF
:101A000000100140000C01400014014010B586B0E8
:101A100000241748009401940294039404941349F9
:101A2000059401601321C0E9011440F2CF71C0E9AF
:101A3000031444618461FFF7F2FC08B1FEF7E4FF90
:101A40004FF48050009069460948FFF732FD08B115
:101A5000FEF7DAFF049404A905480594FFF7BEFCDD
:101A6000002801D0FEF7D0FF06B010BD002C0140C9
:101A7000800000200C4810B50A4901604FF4E131A4
:101A80004160002181600C22C160C0E904128161C3
:101A9000C161FFF754FE002803D0BDE81040FEF7F7
:101AA000B3BF10BD00380140C0010020FEE70000B8
:101AB0002DE9F0411C4C1D4F002520784FF0010806
:101AC000012813D0FD7000202554401CC0B21428FA
:101AD000FAD31748057017480178491CC9B201703C
:101AE000032901D980F80080BDE8F0811248007810
:101AF0002118801E11F8022D497802EB01218EB2C7
:101B0000C1B2094800F020FDB0420AD16078032834
:101B100002D0062805D102E0FEF708FF01E0FEF73B
:101B20001BFF87F80380CEE7C00000202D000020B7
:101B30000F000020050000200E000020FEE7704787
:101B4000704700002DE9F047DFF8A89008214846CB
:101B5000FFF702F9284F0026FD1C6C1D0028607855
:101B60004FF001080FD0042801D2401C60706E7045
:101B700010214846FFF7F0F8B8B1A07804281ED22B
:101B8000401CA0701CE00428F2D36878042802D21C
:101B9000401C6870ECE77878012800D010B917492C
:101BA00081F800806E706670E2E7A878042802D29F
:101BB000401CA87001E087F80080A67001E03E702C
:101BC000AE7080214846FFF7C7F828B12079042875
:101BD0000DD2401C20710BE02879042802D2401C51
:101BE000287101E087F802802671BDE8F087BE7099
:101BF0002E71FAE7000C01402000002004000020B4
:101C0000FFF7C2B810B590B028216846FEF7A1FAD8
:101C100014210AA8FEF79DFA0220009001200490EA
:101C200010200024059007946846FFF731FA08B1A8
:101C300072B6FEE70F20CDE90A040C940D94002142
:101C40000AA80E94FFF738F9002801D072B6FEE713
:101C500010B010BD0D48016841F0010101604168FC
:101C60000B4A1140416001680A4A11400160016855
:101C700021F480210160416821F4FE0141604FF4AC
:101C80001F0181600449C0030860704700100240D2
:101C90000000FFF8FFFFF6FE08ED00E00148FFF747
:101CA00074BC000080000020F0B50268164B174C91
:101CB000174D4FF08047984205D0B84203D0A0425C
:101CC00001D0A84203D122F070064A6832439842FC
:101CD00005D0B84203D0A04201D0A84203D122F4DB
:101CE0004074CA6822434C6922F080022243026099
:101CF0008A68C2620A688262984201D109690163F6
:101D000001214161F0BD0000002C014000040040B1
:101D10000008004010B5846842EA032224F47F449E
:101D20000A432243826010BD826822F070020A4397
:101D300042F007018160704710B5036A046A24F01D
:101D400001040462846924F0F00444EA021423F0DC
:101D50000A020A438461026210BD10B5036A23F0CF
:101D6000100303628369046A23F4704343EA023276
:101D700024F0A00343EA01118261016210BD00005A
:101D800070B50C484FF400610B4C00784D000328EF
:101D90000AD001222046FEF7EBFF0022294620460A
:101DA000BDE87040FEF7E4BF00222046FEF7E0FFEA
:101DB0000122F3E72D0000200010014007484FF4F6
:101DC000806102780648052A06D0022A04D01AB19A
:101DD0005FF00102FEF7CCBF0022FBE72E000020DF
:101DE000001001402DE9F041044600680169E268F5
:101DF00021F44051114301612169A06808436169E0
:101E000008432168CA6841F20C639A430243CA60DE
:101E100020684169A26921F44071114341611E4962
:101E2000206864253226884202D1FFF7EBF801E0F2
:101E3000FFF7D8F800EBC00101EB001160686FF00C
:101E400018078000B1FBF0F2B2FBF5F2B1FBF0F342
:101E50007A4303EB8202B1FBF0F306EB0212B2FB12
:101E6000F5F2B3FBF5F302F0F00202EB0312B1FB63
:101E7000F0F3B1FBF0F0B0FBF5F0784303EB80003A
:101E800006EB0010B0FBF5F0216800F00F001044E5
:101E90008860BDE8F0810000003801402DE9F04184
:101EA000984617460E460446069D1DE0681C1BD04A
:101EB0002DB1FEF763FFA0EB0800A84214D92068FB
:101EC000C16821F4D071C1602068416921F001012D
:101ED0004161202084F8390084F83A00002084F819
:101EE00038000320BDE8F0812068006836EA000071
:101EF00004D00020B842D9D00020F3E70120F9E750
:101F000010B50C48016821F4806101603220FEF7B1
:101F100021FE0520FEF7C2FB3220FEF71BFEFEF776
:101F200091FC014604A000F0ADF8BDE8104005208A
:101F3000FEF79CBC0C0C0140636869702D69643A23
:101F4000307825303278200D0A0000002DE9F84362
:101F5000314D0820E870FEF7ADFA044601462FA087
:101F600000F090F80720FEF781FC1E20FEF7F2FD3E
:101F70000620FEF77BFCE00601D5FEF782FB64201D
:101F8000FEF7E8FD0120FEF7F1FB284EF079E8703E
:101F90000120FEF761FB204C4FF08008083406203A
:101FA00084F8008060700020A0700227E770207124
:101FB00060710421A171E07169463046FEF7C6FAEE
:101FC000C0B2142818D1B078A071F078E0716946D9
:101FD0003046FEF7BBFAC0B214280DD13046FEF7EA
:101FE000E9FB2879FEF736FC142805D14FF416508A
:101FF000FEF70EF9142802D00220BDE8F883002075
:10200000FEF71AFB094885F80280803085F80180C8
:1020100007700020F1E70000100000207370656574
:10202000643A30782578200D0A0000000002002074
:102030002DE9F0410D4607460026104C18E01C2003
:10204000FEF72CFB6078FEF75BFB0921A079FEF719
:10205000A1FB142803D00120FEF77CFD08E0B8198D
:10206000FEF7DCFB304486B2607880F040006070A0
:102070006D1EADB2E3D23046BDE8F0811000002005
:10208000FEE700000FB4054B10B503A9044A0298FF
:1020900000F028F810BC5DF814FB0000892500084A
:1020A0007C0000200907090E002804DB00F1E02075
:1020B00080F80014704700F00F0000F1E02080F875
:1020C000141D704702E008C8121F08C1002AFAD187
:1020D00070477047002001E001C1121F002AFBD1A8
:1020E000704700002DE9FF4F8DB00F4605460026D2
:1020F00006E025280BD0DDE90F1290476D1C761CF9
:1021000028780028F5D111B03046BDE8F08F0024C2
:10211000A246A1460122EC4900E0044315F8013F24
:10212000203B02FA03F00842F7D128782A2810D081
:102130006FF02F022878A0F13001092914D80AEB9A
:102140008A0102EB410144F0020400EB010A6D1C1C
:10215000F0E701CF5FEA000A03D544F40054CAF166
:10216000000A44F002046D1C28782E2817D115F8B7
:10217000010F44F004042A280ED06FF02F022878B3
:10218000A0F1300109290AD809EB890102EB4101CC
:1021900000EB01096D1CF2E757F8049B6D1C2878D1
:1021A0006C280FD006DC4C2817D068280DD06A2880
:1021B00014D104E0742810D07A280FD10DE044F433
:1021C00000140AE044F4801401E044F440146978F7
:1021D000814202D104F580146D1C6D1C2A786E2A90
:1021E0001FD00CDC632A31D004DC002A8BD0582AA3
:1021F00011D1A3E0642A68D0692A0CD165E0732A62
:102200002ED004DC6F2A73D0702A04D19BE0752A8B
:102210006FD0782A6ED01046DDE90F129047761CF9
:1022200050E1C4F30250022806D0032809D0042844
:1022300001CF09D0066045E101CFF117C0E9006187
:1022400040E101CF06803DE106703BE117F8040B49
:102250008DF8000000208DF80100EB46012003E01E
:1022600057F804BB4FF0FF3061074FF0000102D474
:102270000DE008F10101884649450FDA8045F8DB99
:102280001BF808100029F4D108E008F10101884684
:102290008142FADB1BF808100029F6D1DDE90F2393
:1022A000AAEB08008146214600F036F9304400EBE5
:1022B000080604E0DDE90F121BF8010B9047B8F1A6
:1022C0000108F7D221464846F7E00A21C4F3025339
:1022D0004FF0000B0891022B04D001CFC117032B44
:1022E00009D00AE0FF1D27F00707F7E8020108E020
:1022F00032E01FE020E000B2C117042B01D140B250
:10230000C117031E71F1000307DA4FF0000CD0EB88
:102310000C006CEB01012D2302E0230504D52B23D7
:102320008DF82430012303E0E30701D02023F7E7F1
:10233000984658E00A2110E010210EE010204FF0DE
:10234000000B08900CE010214FF0000B44F0040447
:102350004FF00809089103E008214FF0000B0891A5
:10236000C4F30253022B04D001CF0021032B06D06B
:1023700006E0FF1D27F00707F7E8020103E080B23F
:10238000042B00D1C0B24FF0000823072BD5702AD0
:1023900007D0DDF820C08CF0100C5CEA0B0C05D0E7
:1023A0000EE040238DF82430012308E050EA0103B9
:1023B00006D030238DF824308DF82520022398464E
:1023C000DDF820C08CF0080C5CEA0B0C0BD150EA55
:1023D000010301D1630706D530238DF824304FF077
:1023E0000108A9F10109582A04D038A20B9208AAC1
:1023F0000A920BE03AA2F9E75B46089AFDF7B4FEB1
:102400000B9B9B5C0A9A521E0A92137050EA0102BF
:10241000F2D10A98ADEB000000F1200B600702D565
:1024200024F4803401E04FF00109D94502DDA9EB25
:102430000B0000E0002000EB0B0141440890AAEBE8
:10244000010AE00306D4DDE90F232146504600F0DF
:1024500063F806444FF0000908E009A911F80900E3
:10246000DDE90F12904709F10109761CC145F4DB43
:10247000E0030CD5DDE90F232146504600F04CF86F
:10248000064404E0DDE90F1230209047761C0899DD
:10249000481E08900029F5DC08E00A980A9900789F
:1024A000491C0A91DDE90F129047761CBBF100012F
:1024B000ABF1010BF1DC21465046DDE90F2300F0C2
:1024C00019F806446D1C1BE609280100303132332F
:1024D0003435363738396162636465660000000060
:1024E000303132333435363738394142434445464A
:1024F000000000002DE9F041044600251E46174665
:10250000880404D405E039462020B0476D1C641EC1
:10251000F9D52846BDE8F0812DE9F04104460025B3
:102520001E469046C80301D5302700E020278804C6
:1025300004D505E041463846B0476D1C641EF9D508
:102540002846BDE8F081000070B50B4DFF231A4608
:1025500005F5807606E000BF10F8014B5C402B5D6E
:102560005340325D491EC9B2F6D24FF6FF7000EA01
:102570000220184480B270BD2026000801E0401EF1
:10258000C0B20028FBD1704713B54FF6FF7301228C
:1025900069460248FFF73CF900981CBDC0010020C5
:1025A000FEF7FAFBFFF72EFBFFF790F9FFF762FA51
:1025B00040F6B830FEF7CEFAFFF728FAFFF7A0FC96
:1025C0006420FEF7C7FAFDF781FF1248FEF760FFAF
:1025D000114C124F00254FF40046207810B12570A1
:1025E000FFF7B0FA607810B16570FEF7D3F9A07804
:1025F00020B1A570FEF754FAFEF708FAE07820B192
:10260000E57031463846FEF7ACFBFFF7D7FBFFF726
:10261000B7FBE2E780000020000000200008014036
:1026200000C1814001C0804101C0804100C18140A2
:1026300001C0804100C1814000C1814001C0804192
:1026400001C0804100C1814000C1814001C0804182
:1026500000C1814001C0804101C0804100C1814072
:1026600001C0804100C1814000C1814001C0804162
:1026700000C1814001C0804101C0804100C1814052
:1026800000C1814001C0804101C0804100C1814042
:1026900001C0804100C1814000C1814001C0804132
:1026A00001C0804100C1814000C1814001C0804122
:1026B00000C1814001C0804101C0804100C1814012
:1026C00000C1814001C0804101C0804100C1814002
:1026D00001C0804100C1814000C1814001C08041F2
:1026E00000C1814001C0804101C0804100C18140E2
:1026F00001C0804100C1814000C1814001C08041D2
:1027000001C0804100C1814000C1814001C08041C1
:1027100000C1814001C0804101C0804100C18140B1
:1027200000C0C101C30302C2C60607C705C5C40471
:10273000CC0C0DCD0FCFCE0E0ACACB0BC90908C8E1
:10274000D81819D91BDBDA1A1EDEDF1FDD1D1CDCD1
:1027500014D4D515D71716D6D21213D311D1D01041
:10276000F03031F133F3F23236F6F737F53534F431
:102770003CFCFD3DFF3F3EFEFA3A3BFB39F9F838A1
:1027800028E8E929EB2B2AEAEE2E2FEF2DEDEC2C91
:10279000E42425E527E7E62622E2E323E12120E001
:1027A000A06061A163A3A26266A6A767A56564A4F1
:1027B0006CACAD6DAF6F6EAEAA6A6BAB69A9A86861
:1027C00078B8B979BB7B7ABABE7E7FBF7DBDBC7C51
:1027D000B47475B577B7B67672B2B373B17170B0C1
:1027E00050909151935352929656579755959454B1
:1027F0009C5C5D9D5F9F9E5E5A9A9B5B9959589821
:10280000884849894B8B8A4A4E8E8F4F8D4D4C8C10
:102810004484854587474686824243834181804080
:102820000000000000000000010203040607080980
:1028300000000000010203045828000800000020E6
:1028400080000000C4200008D82800088000002074
:1028500010060000D4200008000000000000000066
:102860000000000000000000018080000000000067
:102870000000000000000000000000000000000058
:1028800000000000000002000101032AF800010D11
:10289000E301032EE200012D1401032B1000018C33
:1028A0002B01062B160001A02A01062B290032D08D
:1028B0003301062B2A0001602601062B24000101AA
:1028C000E500000001000000100000000000000012
:0828D0000024F40000000000E8
:04000005080000ED02
:00000001FF
